:020000040800F2
:1000000000500020F51B0008B1160008B7160008C4
:10001000BD160008C3160008C9160008000000003D
:10002000000000000000000000000000CF160008E3
:10003000DB16000800000000E7160008F3160008B1
:100040003D1C00083D1C00083D1C00083D1C00082C
:100050003D1C00083D1C00083D1C00083D1C00081C
:100060003D1C00083D1C00083D1C00083D1C00080C
:100070003D1C00083D1C00083D1C00083D1C0008FC
:100080003D1C00083D1C00083D1C00083D1C0008EC
:100090003D1C00083D1C00083D1C00083D1C0008DC
:1000A0003D1C00083D1C00083D1C00083D1C0008CC
:1000B000011700083D1C00083D1C00083D1C0008FD
:1000C0003D1C00083D1C00083D1C00083D1C0008AC
:1000D0003D1C00083D1C00083D1C000815170008C9
:1000E0003D1C00083D1C00083D1C000800000000ED
:1000F0000000000000000000000000000000000000
:0C01000000000000000000005FF808F1A3
:10010C0010B5054C237833B9044B13B10448AFF345
:10011C0000800123237010BDB000002000000000FF
:10012C002450000808B5034B1BB103490348AFF337
:10013C00008008BD00000000B4000020245000081E
:10014C0080B582B000AF78607B68002B40F08C806B
:10015C008F4A7B6852F823108E487A6813469B00AE
:10016C001344DB000344203319608A497A68134630
:10017C009B001344DB000B44183300221A608549A2
:10018C007A6813469B001344DB000B4414330022A3
:10019C001A60814A7B6832F813007E497A681346EC
:1001AC009B001344DB000B44243302461A8079492C
:1001BC007A6813469B001344DB000B441033012276
:1001CC001A6074497A6813469B001344DB000B4495
:1001DC00103319686F487A6813469B001344DB0090
:1001EC0003440C3319606B497A6813469B00134423
:1001FC00DB000B440C33196866487A6813469B0085
:10020C001344DB0003440833196062497A681346CF
:10021C009B001344DB000B44083319685D487A6873
:10022C0013469B001344DB00034404331960594903
:10023C007A6813469B001344DB000B4404331968A3
:10024C0054487A6813469B001344DB00034419603E
:10025C0050497A6813469B001344DB000B441C3353
:10026C004FF4FA721A608FE0494A7B6852F82310F7
:10027C0048487A6813469B001344DB000344203340
:10028C00196044497A6813469B001344DB000B4405
:10029C00183300221A603F497A6813469B001344B6
:1002AC00DB000B44143300221A603B4A7B6832F8A3
:1002BC00130038497A6813469B001344DB000B4447
:1002CC00243302461A8033497A6813469B00134440
:1002DC00DB000B44103301221A602E497A68134656
:1002EC009B001344DB000B441033196829487A68CF
:1002FC0013469B001344DB0003440C33196025495F
:10030C007A6813469B001344DB000B440C331968CA
:10031C0020487A6813469B001344DB0003440833DF
:10032C0019601C497A6813469B001344DB000B448C
:10033C000833196817487A6813469B001344DB008E
:10034C0003440433196013497A6813469B00134421
:10035C00DB000B44043319680E487A6813469B0083
:10036C001344DB00034419600A497A6813469B0066
:10037C001344DB000B441C334FF4FA721A607B6895
:10038C00013B1846FFF7DCFE00BF0837BD4680BDB9
:10039C0000000020500100201000002080B500AFAC
:1003AC000320FFF7CDFE00BF80BD000080B483B0FA
:1003BC0000AF786006497A6813469B001344DB0053
:1003CC000B4414331B6818460C37BD4680BC704771
:1003DC005001002080B483B000AF786006497A6881
:1003EC0013469B001344DB000B4418331B68184660
:1003FC000C37BD4680BC70475001002080B582B0E0
:10040C0000AF78607B68002B40F02A8191497A68B4
:10041C0013469B001344DB000B44043319688D48CE
:10042C007A6813469B001344DB0003441960894926
:10043C007A6813469B001344DB000B44083319689D
:10044C0084487A6813469B001344DB00034404334E
:10045C00196080497A6813469B001344DB000B44F7
:10046C000C3319687B487A6813469B001344DB00F5
:10047C0003440833196077497A6813469B00134488
:10048C00DB000B441033196872487A6813469B00E2
:10049C001344DB0003440C3319606F4A7B6852F839
:1004AC0023206E497B6831F813301946104601F051
:1004BC0067FF0346184667497A6813469B00134446
:1004CC00DB000B441033186062497A6813469B00BA
:1004DC001344DB000B4419685E487A6813469B0092
:1004EC001344DB00034404331B68994240F08680BC
:1004FC0058497A6813469B001344DB000B440433C1
:10050C00196854487A6813469B001344DB00034473
:10051C0008331B68994271D14E497A6813469B0087
:10052C001344DB000B44083319684A487A681346B5
:10053C009B001344DB0003440C331B6899425DD1D0
:10054C0044497A6813469B001344DB000B440C337C
:10055C00196840487A6813469B001344DB00034437
:10056C0010331B68994249D13A497A6813469B006B
:10057C001344DB000B4410331B68002B3ED1354970
:10058C007A6813469B001344DB000B441C331B6836
:10059C00002B13DD2F497A6813469B001344DB00B4
:1005AC000B441C331B68591E2A487A6813469B005F
:1005BC001344DB0003441C33196009E025497A68B5
:1005CC0013469B001344DB000B44183301221A60C2
:1005DC0020497A6813469B001344DB000B441C3300
:1005EC001B68B3F5F57F09DC1A497A6813469B0042
:1005FC001344DB000B44143301221A6015497A684A
:10060C0013469B001344DB000B4410331B68002B78
:10061C0000F040810F497A6813469B001344DB00BD
:10062C000B44143300221A600A497A6813469B0063
:10063C001344DB000B44183300221A6005497A6816
:10064C0013469B001344DB000B441C334FF4FA722B
:10065C001A601FE150010020000000201000002053
:10066C008E497A6813469B001344DB000B44043319
:10067C0019688A487A6813469B001344DB000344CC
:10068C00196086497A6813469B001344DB000B44BF
:10069C000833196881487A6813469B001344DB00C1
:1006AC000344043319607D497A6813469B00134454
:1006BC00DB000B440C33196878487A6813469B00AE
:1006CC001344DB0003440833196074497A681346F9
:1006DC009B001344DB000B44103319686F487A6895
:1006EC0013469B001344DB0003440C3319606C4A23
:1006FC007B6852F823206B497B6831F8133019461C
:10070C00104601F03DFE0346184664497A681346CC
:10071C009B001344DB000B44103318605F497A686C
:10072C0013469B001344DB000B4419685B487A6842
:10073C0013469B001344DB00034404331B689942AB
:10074C0079D156497A6813469B001344DB000B445D
:10075C000433196851487A6813469B001344DB0034
:10076C00034408331B68994265D14C497A68134697
:10077C009B001344DB000B440833196847487A6824
:10078C0013469B001344DB0003440C331B68994253
:10079C0051D142497A6813469B001344DB000B4449
:1007AC000C3319683D487A6813469B001344DB00F0
:1007BC00034410331B6899423DD138497A6813467B
:1007CC009B001344DB000B4410331B68002B32D10D
:1007DC0032497A6813469B001344DB000B441433F4
:1007EC0001221A602D497A6813469B001344DB00E2
:1007FC000B441C331B68002B13DD28497A68134605
:10080C009B001344DB000B441C331B68591E23480C
:10081C007A6813469B001344DB0003441C331960B5
:10082C0009E01E497A6813469B001344DB000B4415
:10083C00183301221A6019497A6813469B00134435
:10084C00DB000B4410331B68002B1ED013497A6855
:10085C0013469B001344DB000B44143300221A6034
:10086C000E497A6813469B001344DB000B44183383
:10087C0000221A6009497A6813469B001344DB0076
:10088C000B441C334FF4FA721A607B68013B184618
:10089C00FFF7B4FD00BF0837BD4680BD50010020F6
:1008AC00000000201000002080B500AF0320FFF7EF
:1008BC00A5FD00BF80BD000080B584B000AF78609E
:1008CC00904B1B68904AA2FB03235B0918468D4B87
:1008DC009B688D4AA2FB03235B09194601F006F9BC
:1008EC008A4B1B68002B4AD0894B1B68022B46D1C4
:1008FC00884B1B68642202FB03F31A46814B1B686E
:10090C00D31A844A1268B3FBF2F213465B00134409
:10091C00DA00D31AFB607B4B19687E4B1A681346BE
:10092C001B019B1A9B0099420DD3764B1968794B8E
:10093C001A6813469B0013441B01994203D80020EC
:10094C0000F0B0FD1BE06F4B1968724B1A68134630
:10095C009B0013449B0099420DD36A4B19686D4B55
:10096C001A6813469B001344DB00994203D80020FD
:10097C0000F098FD03E0FB68184600F093FD644B13
:10098C001B68022B02D0002000F08CFD604A7B68B3
:10099C0052F82330013B032B00F2A68001A252F83F
:1009AC0023F000BFC10900081D0A0008650A0008F1
:1009BC00AD0A0008786800F099FF7B68002B17D10E
:1009CC00534A7B68022142F823107A68514B1B680A
:1009DC00642101FB03F31946104600F00DFF4B4B4D
:1009EC001B68002B00F08280022000F0CDFF7DE020
:1009FC00474A7B68032142F823107A68464B1B68F0
:100A0C00642101FB03F31946104600F0F5FE6DE07E
:100A1C00786800F0FBFF7B68184600F051FF034636
:100A2C00012B0ED13A4A7B68032142F823107A68D5
:100A3C00394B1B68642101FB03F31946104600F087
:100A4C00DBFE7B68002B53D1304B1B68002B4FD047
:100A5C00022000F099FF4BE0786800F095FF7B686E
:100A6C00184600F02DFF0346012B0ED1284A7B6857
:100A7C00042142F823107A68284B1B68642101FB7F
:100A8C0003F31946104600F0B7FE7B68002B31D1FA
:100A9C001E4B1B68002B2DD0022000F0B7FF29E065
:100AAC00786800F0F5FF7B68184600F009FF0346F4
:100ABC00012B0ED1164A7B68022142F823107A686A
:100ACC00144B1B68642101FB03F31946104600F01C
:100ADC0093FE7B68002B0FD10C4B1B68002B0BD0AB
:100AEC00022000F093FF07E000BF06E000BF04E027
:100AFC0000BF02E000BF00E000BF00BF1037BD46E2
:100B0C0080BD00BFE00000201F85EB51D00000200D
:100B1C0018000020240000202C00002028000020B9
:100B2C0080B582B000AF7860002000F0DFFE0120BD
:100B3C0000F0DCFE054A7B6813601921022000F0EE
:100B4C005BFE00BF0837BD4680BD00BF2000002003
:100B5C0080B500AF924B1B680B3B032B00F27682E7
:100B6C0001A252F823F000BF850B0008A50C000869
:100B7C00DD0D0008DF0E00080020FFF79DFE0120B0
:100B8C00FFF79AFE0020FFF711FC0346012B10D152
:100B9C00844B1B68844A13600C20FFF7C1FF202193
:100BAC00824801F01CFC824B00221A600020FFF7E7
:100BBC00C7FA0120FFF7FAFB0346012B4CD17D4B02
:100BCC001B68032B03D07B4B1B68042B1ED1794B6A
:100BDC0002221A60734B1B68642202FB03F3194652
:100BEC00002000F009FE734B03225A60724B1B6805
:100BFC00642202FB03F31946012000F0FDFD6C4B4F
:100C0C001B68002B02D0022000F0BEFE694B1B6853
:100C1C00022B1ED1674B03221A60674B1B686422A0
:100C2C0002FB03F31946002000F0E6FD614B0222A3
:100C3C005A605C4B1B68642202FB03F319460120CB
:100C4C0000F0DAFD5A4B1B68002B02D0022000F09A
:100C5C00DDFE0120FFF774FA0320FFF7A7FB034624
:100C6C00012B0BD1524B01221A60544B1B6864228E
:100C7C0002FB03F31946032000F0BEFD032000F035
:100C8C001FFE0346002B00F0E581494B00221A6041
:100C9C00022000F02BFEDDE1434B1B6819460220BD
:100CAC0000F024FF0020FFF781FB0346012B09D144
:100CBC00434B1B683C4A13600D20FFF731FF0020AB
:100CCC00FFF73EFA0120FFF771FB0346012B15D10C
:100CDC00354B1B680133344A1360334B1A68394B5C
:100CEC0083FB02135911D317CB1A642101FB03F3B5
:100CFC00D31A2D4A13600120FFF722FA0120FFF7C7
:100D0C0069FB0346012B1CD1032000F0D9FD0346DF
:100D1C00012B16D1244B1B680133234A1360224B41
:100D2C001A68284B83FB02135911D317CB1A642171
:100D3C0001FB03F3D31A1C4A13603221042000F088
:100D4C005BFD0220FFF732FB0346012B07D1164B4C
:100D5C001B68144A13602021144801F040FB022048
:100D6C0000F0AEFD0346012B40F076814FF480611C
:100D7C00154801F034FB00224FF40061124801F0D9
:100D8C0016FB0121114801F02AFB00221021074813
:100D9C0001F00DFB0A21022000F02EFD5CE100BFEA
:100DAC002000002024000020CC000020000801407E
:100DBC00D0000020180000202C0000203C00002057
:100DCC00280000201F85EB5100100140000C014051
:100DDC00A54B1B681946032000F088FE0020FFF786
:100DEC00E5FA0346012B09D1A04B1B689E4A136000
:100DFC000E20FFF795FE0020FFF7A2F90120FFF768
:100E0C00D5FA0346012B15D1974B1B680133964A33
:100E1C001360954B1A68964B83FB02135911D31729
:100E2C00CB1A642101FB03F3D31A8F4A1360012000
:100E3C00FFF786F90120FFF7CDFA0346012B1CD1F1
:100E4C00032000F03DFD0346012B16D1864B1B6899
:100E5C000133854A1360844B1A68854B83FB02135C
:100E6C005911D317CB1A642101FB03F3D31A7E4A11
:100E7C0013603221042000F0BFFC0220FFF796FA29
:100E8C000346012B07D1784B1B687A4A136020214B
:100E9C00794801F0A4FA022000F012FD0346012B60
:100EAC0040F0DC804FF48061744801F098FA4FF404
:100EBC000061724801F093FA0121714801F08FFA38
:100ECC0010216D4801F08BFA0A21022000F094FCED
:100EDC00C4E0654B1B681946042000F007FE002097
:100EEC00FFF764FA0346012B44D1664B01221A60CA
:100EFC00644B01225A605F4B1A685C4B1B681A44A6
:100F0C00614B1B689A420BD15F4B1B68002B07D0BF
:100F1C00584B1B68002B03D0544B1B68002B0CD177
:100F2C005A4B1B68584A1360594B1B68514A136043
:100F3C00584B1B684D4A13600BE0534B1B68534ACC
:100F4C0013604C4B1B68524A1360484B1B68514A48
:100F5C0013604D4B1A68474B1B681A44434B1B6874
:100F6C0013445B004C4A13600B20FFF7D9FD0020A3
:100F7C00FFF7E6F80120FFF719FA0346012B15D10C
:100F8C00394B1B680133384A1360374B1A68384B9E
:100F9C0083FB02135911D317CB1A642101FB03F302
:100FAC00D31A314A13600120FFF7CAF80120FFF76A
:100FBC0011FA0346012B1CD1032000F081FC0346DF
:100FCC00012B16D1284B1B680133274A1360264B83
:100FDC001A68274B83FB02135911D317CB1A6421C0
:100FEC0001FB03F3D31A204A13603221042000F0D2
:100FFC0003FC0220FFF7DAF90346012B07D11A4B49
:10100C001B681A4A136020211B4801F0E8F90220E2
:10101C0000F056FC0346012B22D100224FF48061D4
:10102C00164801F0C4F94FF40061144801F0D7F9E7
:10103C0000220121124801F0BAF910210E4801F0EA
:10104C00CEF90A21022000F0D7FB09E0134B0B224A
:10105C001A6006E000BF04E000BF02E000BF00E041
:10106C0000BF00BF80BD00BFCC0000202C000020C2
:10107C001F85EB51280000200008014000100140A2
:10108C00000C01401800002024000020300000203B
:10109C0034000020380000203C00002020000020FC
:1010AC0080B500AF00F0C6FD00F09EFBFFF776F9AF
:1010BC0000F016F800F046F900F054F800F0A0F833
:1010CC0000F016F9044801F001FE0021034801F07C
:1010DC00A7FEFFF73DFDFCE738020020F0010020E1
:1010EC0080B590B000AF07F11803282200211846F4
:1010FC0003F050FB3B1D00221A605A609A60DA60C4
:10110C001A610223BB610123BB621023FB62022321
:10111C007B630023BB634FF46013FB6307F118037D
:10112C00184601F075F90346002B01D000F0B4F914
:10113C000F237B600223BB600023FB604FF48063B2
:10114C003B6100237B613B1D0221184601F0E0FB53
:10115C000346002B01D000F09FF900BF4037BD467D
:10116C0080BD000080B586B000AF07F108030022F7
:10117C001A605A609A60DA603B4600221A605A6024
:10118C001E4B4FF080421A601C4B40F27F225A607B
:10119C001A4B00229A60194B40F2E732DA60174B77
:1011AC0000221A61154B00229A61144801F03EFD91
:1011BC000346002B01D000F06FF94FF48053BB6055
:1011CC0007F1080319460D4802F096F80346002B68
:1011DC0001D000F061F900233B6000237B603B46AB
:1011EC001946064802F018FC0346002B01D000F00B
:1011FC0053F900BF1837BD4680BD00BF3802002030
:10120C0080B58EB000AF07F1280300221A605A6037
:10121C009A60DA6007F1200300221A605A603B1DC5
:10122C0000221A605A609A60DA601A615A619A61F7
:10123C002D4B2E4A1A602C4B40F27F225A602A4BBF
:10124C0000229A60284B40F2E732DA60264B0022EB
:10125C001A61254B00229A61234801F0E7FC0346F2
:10126C00002B01D000F018F94FF48053BB6207F14A
:10127C00280319461C4802F03FF80346002B01D006
:10128C0000F00AF9184801F073FD0346002B01D059
:10129C0000F002F900233B6200237B6207F120037C
:1012AC001946114802F0B8FB0346002B01D000F0A0
:1012BC00F3F860237B600023BB600023FB600023FA
:1012CC007B613B1D00221946074801F053FF034682
:1012DC00002B01D000F0E0F8034800F05DF900BFEE
:1012EC003837BD4680BD00BFF0010020000400402F
:1012FC0080B500AF114B124A1A60104B4FF4E1321B
:10130C005A600E4B00229A600C4B0022DA600B4B99
:10131C0000221A61094B0C225A61084B00229A6177
:10132C00064B0022DA61054802F0E6FB0346002B6F
:10133C0001D000F0B1F800BF80BD00BF0801002053
:10134C000048004080B588B000AF07F110030022C0
:10135C001A605A609A60DA60454B9B69444A43F0C4
:10136C0010039361424B9B6903F01003FB60FB6815
:10137C003F4B9B693E4A43F0200393613C4B9B6976
:10138C0003F02003BB60BB68394B9B69384A43F0C0
:10139C0004039361364B9B6903F004037B607B6809
:1013AC00334B9B69324A43F008039361304B9B6982
:1013BC0003F008033B603B68002230212D4800F00D
:1013CC00F6FF002240F201312B4800F0F0FF002222
:1013DC004FF44061294800F0EAFF4FF400533B61A1
:1013EC0000237B610023BB6107F1100319462348DE
:1013FC0000F042FE40F206233B6100237B61002398
:10140C00BB6107F1100319461A4800F035FE302372
:10141C003B6101237B610023BB610223FB6107F16C
:10142C0010031946134800F027FE40F201333B61CC
:10143C0001237B610023BB610223FB6107F11003D5
:10144C0019460D4800F018FE4FF440633B61012330
:10145C007B610023BB610223FB6107F1100319467A
:10146C00064800F009FE00BF2037BD4680BD00BF16
:10147C000010024000080140000C01400010014027
:10148C0080B582B000AF786000F012FAFFF70CFA6A
:10149C0000BF0837BD4680BD80B400AF72B600BF38
:1014AC00FEE7000080B483B000AF7860044B1B688B
:1014BC007A685A6300BF0C37BD4680BC704700BFCA
:1014CC00F001002080B485B000AF154B9B69144A25
:1014DC0043F001039361124B9B6903F00103BB6062
:1014EC00BB680F4BDB690E4A43F08053D3610C4B46
:1014FC00DB6903F080537B607B680A4B5B68FB60A5
:10150C00FB6823F0E063FB60FB6843F00073FB6057
:10151C00044AFB68536000BF1437BD4680BC70475B
:10152C00001002400000014080B584B000AF78602C
:10153C007B681B68B3F1804F14D1154BDB69144ADF
:10154C0043F00103D361124BDB6903F00103FB6031
:10155C00FB68002200211C2000F0A5FC1C2000F0E0
:10156C00BEFC10E07B681B680A4A93420BD1084B07
:10157C00DB69074A43F00203D361054BDB6903F0D7
:10158C000203BB60BB6800BF1037BD4680BD00BF07
:10159C00001002400004004080B588B000AF7860B5
:1015AC0007F1100300221A605A609A60DA607B68B7
:1015BC001B680F4A934217D10E4B9B690D4A43F09F
:1015CC00040393610B4B9B6903F00403FB60FB6802
:1015DC0040233B6102237B610223FB6107F1100373
:1015EC001946054800F048FD00BF2037BD4680BDB8
:1015FC0000040040001002400008014080B588B093
:10160C0000AF786007F1100300221A605A609A60EC
:10161C00DA607B681B68204A934239D11F4BDB6927
:10162C001E4A43F48023D3611C4BDB6903F48023F3
:10163C00FB60FB68194B9B69184A43F008039361E4
:10164C00164B9B6903F00803BB60BB684FF48063C7
:10165C003B6102237B610323FB6107F110031946F5
:10166C000F4800F009FD4FF400633B6100237B61E0
:10167C000023BB6107F110031946094800F0FCFC7C
:10168C0000220021272000F00EFC272000F027FC70
:10169C0000BF2037BD4680BD00480040001002400E
:1016AC00000C014080B400AFFEE780B400AFFEE751
:1016BC0080B400AFFEE780B400AFFEE780B400AFAB
:1016CC00FEE780B400AF00BFBD4680BC704780B45D
:1016DC0000AF00BFBD4680BC704780B400AF00BFF8
:1016EC00BD4680BC704780B500AF00F0E9FA00BF82
:1016FC0080BD000080B500AF024801F033FC00BF94
:10170C0080BD00BF3802002080B500AF024802F057
:10171C00C7FA00BF80BD00BF0801002080B586B0AD
:10172C0000AF7860144A154BD31A7B617B693B611F
:10173C00134B1B68002B02D1114B124A1A60104B31
:10174C001A687B6813443A699A4207D202F0F8FF90
:10175C0003460C221A604FF0FF3309E0084B1B685C
:10176C00FB60074B1A687B681344054A1360FB68DF
:10177C0018461837BD4680BD0050002000040000FC
:10178C00D4000020F002002080B400AF00BFBD46A2
:10179C0080BC704780B582B000AF78607B68002B4E
:1017AC000BD1104A7B68002142F833100D4A7B683C
:1017BC00DB00134401225A600FE00A4A7B680021C7
:1017CC0042F83310074A7B68DB00134401225A604D
:1017DC007B68013B1846FFF7DDFF00BF0837BD46AD
:1017EC0080BD00BFE000002080B500AF0420FFF7F3
:1017FC00D1FF00BF80BD000080B483B000AF786023
:10180C0039607B68042B0BD808497B683A6841F82F
:10181C003320064A7B68DB00134400225A6000E048
:10182C0000BF0C37BD4680BC704700BFE0000020F5
:10183C0080B582B000AF78607B68002B16D11B4A54
:10184C007B6852F83330002B06D1184A7B68DB00DA
:10185C00134401225A6024E0144A7B6852F8333056
:10186C005A1E12497B6841F833201AE00F4A7B68F4
:10187C0052F83330002B06D10C4A7B68DB00134442
:10188C0001225A6008E0094A7B6852F833305A1E2C
:10189C0006497B6841F833207B68013B1846FFF70B
:1018AC00C7FF00BF0837BD4680BD00BFE000002069
:1018BC0080B500AF0420FFF7BBFF00BF80BD000068
:1018CC0080B483B000AF7860074A7B68DB001344B8
:1018DC005B68012B0CBF01230023DBB218460C37CD
:1018EC00BD4680BC704700BFE000002080B582B0D0
:1018FC0000AF78607B68022B2DD07B68022B37DC25
:10190C007B68002B03D07B68012B19D030E00022C0
:10191C004FF48061194800F04AFD00224FF4006139
:10192C00164800F044FD00224FF40071144800F0FA
:10193C003EFD00224FF48071114800F038FD18E094
:10194C00002201210E4800F032FD002210210D482A
:10195C0000F02DFD0DE000224FF48071084800F0DE
:10196C0026FD00224FF48071054800F020FD00E0B8
:10197C0000BF00BF0837BD4680BD00BF001001404E
:10198C00000C01400008014080B582B000AF7860C7
:10199C007B68022B21D07B68022B2BDC7B68002B15
:1019AC0003D07B68012B0DD024E000224FF4806122
:1019BC00134800F0FCFC01224FF40061104800F0C9
:1019CC00F6FC18E0002201210E4800F0F0FC012288
:1019DC0010210D4800F0EBFC0DE000224FF40071DB
:1019EC00084800F0E4FC01224FF48071054800F037
:1019FC00DEFC00E000BF00BF0837BD4680BD00BF65
:101A0C0000100140000C01400008014080B582B07C
:101A1C0000AF78607B68022B21D07B68022B2BDC1B
:101A2C007B68002B03D07B68012B0DD024E00122B6
:101A3C004FF48061134800F0BAFC00224FF40061AF
:101A4C00104800F0B4FC18E0012201210E4800F00F
:101A5C00AEFC002210210D4800F0A9FC0DE0012283
:101A6C004FF40071084800F0A2FC00224FF4807182
:101A7C00054800F09CFC00E000BF00BF0837BD46E5
:101A8C0080BD00BF00100140000C01400008014067
:101A9C0080B582B000AF78607B68002B03D07B6888
:101AAC00012B0DD017E001224FF480610C4800F09F
:101ABC007EFC01224FF40061094800F078FC0AE03A
:101ACC0001220121074800F072FC01221021064876
:101ADC0000F06DFC00BF00BF0837BD4680BD00BFE5
:101AEC0000100140000C01400008014080B584B09A
:101AFC0000AF786039600023FB607B68092B02DC47
:101B0C00FB680133FB603B68092B02DCFB6802338A
:101B1C00FB60FB68032B47D801A252F823F000BFEF
:101B2C003D1B00085B1B0008791B0008971B000875
:101B3C003B687A682649274802F034FE03469AB27D
:101B4C004FF47A732349244802F026F83BE03B68B3
:101B5C007A6822491F4802F025FE03469AB24FF4D8
:101B6C007A731C491C4802F017F82CE03B687A6821
:101B7C001B49184802F016FE03469AB24FF47A73CA
:101B8C001449154802F008F81DE03B687A681549BD
:101B9C00104802F007FE03469AB24FF47A730D49CF
:101BAC000D4801F0F9FF0EE03B687A6808490948D6
:101BBC0002F0F8FD03469AB24FF47A7305490648D1
:101BCC0001F0EAFF00BF00BF1037BD4680BD00BF6B
:101BDC003C500008C8020020080100204C500008AE
:101BEC005C5000086C500008FFF7CEFD0B480C4908
:101BFC000C4A002302E0D458C4500433C4188C425D
:101C0C00F9D3094A094C002301E013600432A242C3
:101C1C00FBD302F09BFDFFF743FA70470000002056
:101C2C00B0000020E8500008B0000020EC020020BA
:101C3C00FEE7000080B500AF084B1B68074A43F075
:101C4C0010031360032000F023F90F2000F008F8B4
:101C5C00FFF738FC0023184680BD00BF002002406F
:101C6C0080B582B000AF7860124B1A68124B1B78AB
:101C7C0019464FF47A73B3FBF1F3B2FBF3F3184646
:101C8C0000F03BF90346002B01D001230EE07B68EA
:101C9C000F2B0AD8002279684FF0FF3000F003F9BF
:101CAC00064A7B681360002300E0012318460837BE
:101CBC00BD4680BD400000204800002044000020AC
:101CCC0080B400AF054B1B781A46054B1B681344B8
:101CDC00034A136000BFBD4680BC7047480000201B
:101CEC00D802002080B400AF024B1B681846BD46DA
:101CFC0080BC7047D802002080B485B000AF7860FB
:101D0C007B6803F00703FB600C4BDB68BB60BA68B5
:101D1C004FF6FF031340BB60FB681A02BB6813430A
:101D2C0043F0BF6343F40033BB60044ABB68D36029
:101D3C0000BF1437BD4680BC704700BF00ED00E00B
:101D4C0080B400AF044BDB681B0A03F00703184692
:101D5C00BD4680BC704700BF00ED00E080B483B08E
:101D6C0000AF0346FB7197F90730002B0BDBFB79B7
:101D7C0003F01F02064997F907305B09012000FAAE
:101D8C0002F241F8232000BF0C37BD4680BC7047DF
:101D9C0000E100E080B483B000AF03463960FB7112
:101DAC0097F90730002B0ADB3B68DAB20C4997F93C
:101DBC0007301201D2B20B4483F800230AE03B68CF
:101DCC00DAB20849FB7903F00F03043B1201D2B2DB
:101DDC000B441A7600BF0C37BD4680BC704700BF61
:101DEC0000E100E000ED00E080B489B000AFF860E5
:101DFC00B9607A60FB6803F00703FB61FB69C3F110
:101E0C000703042B28BF0423BB61FB690433062B97
:101E1C0002D9FB69033B00E000237B614FF0FF32EA
:101E2C00BB6902FA03F3DA43BB681A407B699A4038
:101E3C004FF0FF317B6901FA03F3D9437B680B4008
:101E4C00134318462437BD4680BC704780B582B01A
:101E5C0000AF78607B68013BB3F1807F01D3012335
:101E6C000FE00A4A7B68013B53600F214FF0FF30B3
:101E7C00FFF790FF054B00229A60044B07221A6073
:101E8C00002318460837BD4680BD00BF10E000E0B7
:101E9C0080B582B000AF78607868FFF72DFF00BF87
:101EAC000837BD4680BD80B586B000AF0346B9602B
:101EBC007A60FB7300237B61FFF742FF78617A68DD
:101ECC00B9687869FFF790FF024697F90F30114611
:101EDC001846FFF75FFF00BF1837BD4680BD80B5C1
:101EEC0082B000AF0346FB7197F907301846FFF735
:101EFC0035FF00BF0837BD4680BD80B582B000AF4E
:101F0C0078607868FFF7A2FF034618460837BD468D
:101F1C0080BD80B485B000AF78600023FB737B6814
:101F2C0093F82130DBB2022B08D07B6804229A6331
:101F3C007B68002283F82020012320E07B681B684B
:101F4C001A687B681B6822F00E021A607B681B689B
:101F5C001A687B681B6822F001021A607B681A6C95
:101F6C007B68DB6B012101FA02F25A607B6801226B
:101F7C0083F821207B68002283F82020FB7B184605
:101F8C001437BD4680BC704780B584B000AF786014
:101F9C000023FB737B6893F82130DBB2022B05D056
:101FAC007B6804229A630123FB7351E07B681B68F6
:101FBC001A687B681B6822F00E021A607B681B682B
:101FCC001A687B681B6822F001021A607B681B6828
:101FDC00224A934229D07B681B68214A934222D023
:101FEC007B681B681F4A93421AD07B681B681E4A89
:101FFC00934212D07B681B681C4A93420AD07B68C0
:10200C001B681B4A934202D14FF480130EE04FF031
:10201C0080730BE04FF4803308E04FF4805305E0FD
:10202C004FF4807302E0102300E00123114A536047
:10203C007B68012283F821207B68002283F8202012
:10204C007B685B6B002B03D07B685B6B7868984775
:10205C00FB7B18461037BD4680BD00BF0800024010
:10206C001C00024030000240440002405800024074
:10207C006C0002400000024080B48BB000AF78606E
:10208C00396000237B6200233B6269E101227B6A99
:10209C0002FA03F3FB613B681B68FA691340BB61EE
:1020AC00BA69FB699A4240F058813B685B689A4A6E
:1020BC0093425ED0984A934275D8984A934258D02E
:1020CC00964A93426FD8964A934252D0944A93427E
:1020DC0069D8944A93424CD0924A934263D8924A1C
:1020EC00934246D0904A93425DD8122B2AD8122B99
:1020FC0059D801A252F823F07F2100085921000879
:10210C006B210008AD210008B3210008B3210008A1
:10211C00B3210008B3210008B3210008B321000843
:10212C00B3210008B3210008B3210008B321000833
:10213C00B3210008B3210008B32100086121000875
:10214C0075210008794A934213D02CE03B68DB6878
:10215C003B6229E03B68DB6804333B6224E03B686C
:10216C00DB6808333B621FE03B68DB680C333B6287
:10217C001AE03B689B68002B02D104233B6213E0FE
:10218C003B689B68012B05D108233B627B68FA698D
:10219C001A6109E008233B627B68FA695A6103E023
:1021AC0000233B6200E000BFBB69FF2B01D87B68BA
:1021BC0001E07B6804337B61BB69FF2B02D87B6A2F
:1021CC009B0002E07B6A083B9B003B617B691A68C1
:1021DC000F213B6901FA03F3DB431A40396A3B696F
:1021EC0001FA03F31A437B691A603B685B6803F0DE
:1021FC008053002B00F0B1804D4B9B694C4A43F04F
:10220C00010393614A4B9B6903F00103BB60BB68FC
:10221C00484A7B6A9B08023352F82330FB607B6A86
:10222C0003F003039B000F2202FA03F3DB43FA686B
:10223C001340FB607B68404A934213D07B683F4A53
:10224C0093420DD07B683E4A934207D07B683D4A4F
:10225C00934201D1032306E0042304E0022302E0AD
:10226C00012300E000237A6A02F0030292009340FB
:10227C00FA681343FB602F497B6A9B080233FA68A8
:10228C0041F823203B685B6803F48013002B06D0D5
:10229C002D4B9A682C49BB6913438B6006E02A4B83
:1022AC009A68BB69DB43284913408B603B685B68C9
:1022BC0003F40013002B06D0234BDA682249BB69C8
:1022CC001343CB6006E0204BDA68BB69DB431E4945
:1022DC001340CB603B685B6803F40033002B06D0E3
:1022EC00194B5A681849BB6913434B6006E0164BEF
:1022FC005A68BB69DB43144913404B603B685B680D
:10230C0003F48033002B21D00F4B1A680E49BB69A4
:10231C0013430B6021E000BF0000321000003110AD
:10232C0000002210000021100000121000001110FB
:10233C00001002400000014000080140000C014068
:10234C000010014000140140000401400B4B1A68BE
:10235C00BB69DB43094913400B607B6A01337B6229
:10236C003B681A687B6A22FA03F3002B7FF48EAE6B
:10237C0000BF00BF2C37BD4680BC70470004014035
:10238C0080B485B000AF78600B467B807B689A6820
:10239C007B881340002B02D00123FB7301E0002348
:1023AC00FB73FB7B18461437BD4680BC704780B46A
:1023BC0083B000AF78600B467B8013467B707B78D4
:1023CC00002B03D07A887B681A6103E07B881A049F
:1023DC007B681A6100BF0C37BD4680BC704780B467
:1023EC0085B000AF78600B467B807B68DB68FB6058
:1023FC007A88FB6813401A04FB68D9437B880B402E
:10240C001A437B681A6100BF1437BD4680BC704705
:10241C0080B586B000AF78607B68002B01D10123BA
:10242C006CE27B681B6803F00103002B00F08780D3
:10243C00924B5B6803F00C03042B0CD08F4B5B6846
:10244C0003F00C03082B12D18C4B5B6803F4803324
:10245C00B3F5803F0BD1894B1B6803F40033002B81
:10246C006CD07B685B68002B68D1012346E27B68EB
:10247C005B68B3F5803F06D1804B1B687F4A43F401
:10248C00803313602EE07B685B68002B0CD17B4B98
:10249C001B687A4A23F480331360784B1B68774AA5
:1024AC0023F4802313601DE07B685B68B3F5A02FD9
:1024BC000CD1724B1B68714A43F4802313606F4B31
:1024CC001B686E4A43F4803313600BE06B4B1B6844
:1024DC006A4A23F480331360684B1B68674A23F401
:1024EC00802313607B685B68002B13D0FFF7FAFB2B
:1024FC00386108E0FFF7F6FB02463B69D31A642B00
:10250C0001D90323FAE15D4B1B6803F40033002B64
:10251C00F0D014E0FFF7E6FB386108E0FFF7E2FBD0
:10252C0002463B69D31A642B01D90323E6E1534BD2
:10253C001B6803F40033002BF0D100E000BF7B6874
:10254C001B6803F00203002B63D04C4B5B6803F059
:10255C000C03002B0BD0494B5B6803F00C03082BCE
:10256C001CD1464B5B6803F48033002B16D1434BD4
:10257C001B6803F00203002B05D07B681B69012B41
:10258C0001D00123BAE13D4B1B6823F0F8027B68B4
:10259C005B69DB00394913430B603AE07B681B69CC
:1025AC00002B20D0364B01221A60FFF79BFB3861C1
:1025BC0008E0FFF797FB02463B69D31A022B01D9BF
:1025CC0003239BE12D4B1B6803F00203002BF0D07F
:1025DC002A4B1B6823F0F8027B685B69DB002749F8
:1025EC0013430B6015E0264B00221A60FFF77AFBB1
:1025FC00386108E0FFF776FB02463B69D31A022BE1
:10260C0001D903237AE11D4B1B6803F00203002B55
:10261C00F0D17B681B6803F00803002B3AD07B6871
:10262C009B69002B19D0174B01221A60FFF75AFB3C
:10263C00386108E0FFF756FB02463B69D31A022BC0
:10264C0001D903235AE10D4B5B6A03F00203002B03
:10265C00F0D0012000F0CCFA1CE00A4B00221A60EA
:10266C00FFF740FB38610FE0FFF73CFB02463B698C
:10267C00D31A022B08D9032340E100BF00100240FB
:10268C0000004242800442429E4B5B6A03F002030C
:10269C00002BE9D17B681B6803F00403002B00F0CE
:1026AC00A6800023FB75974BDB6903F08053002B4E
:1026BC000DD1944BDB69934A43F08053D361914B1A
:1026CC00DB6903F08053BB60BB680123FB758E4B49
:1026DC001B6803F48073002B18D18B4B1B688A4A40
:1026EC0043F480731360FFF7FDFA386108E0FFF7DD
:1026FC00F9FA02463B69D31A642B01D90323FDE096
:10270C00814B1B6803F48073002BF0D07B68DB6873
:10271C00012B06D17B4B1B6A7A4A43F001031362EF
:10272C002DE07B68DB68002B0CD1764B1B6A754A5D
:10273C0023F001031362734B1B6A724A23F00403E8
:10274C0013621CE07B68DB68052B0CD16D4B1B6A9C
:10275C006C4A43F0040313626A4B1B6A694A43F0E8
:10276C00010313620BE0674B1B6A664A23F00103FB
:10277C001362644B1B6A634A23F0040313627B6885
:10278C00DB68002B15D0FFF7ADFA38610AE0FFF7D4
:10279C00A9FA02463B69D31A41F28832934201D915
:1027AC000323ABE0574B1B6A03F00203002BEED064
:1027BC0014E0FFF797FA38610AE0FFF793FA024644
:1027CC003B69D31A41F28832934201D9032395E035
:1027DC004C4B1B6A03F00203002BEED1FB7D012B4B
:1027EC0005D1484BDB69474A23F08053D3617B68A2
:1027FC00DB69002B00F08180424B5B6803F00C031B
:10280C00082B61D07B68DB69022B46D13F4B002241
:10281C001A60FFF767FA386108E0FFF763FA0246BF
:10282C003B69D31A022B01D9032367E0354B1B6894
:10283C0003F00073002BF0D17B681B6AB3F5803F6B
:10284C0008D1304B5B6823F400327B689B682D49C0
:10285C0013434B602B4B5B6823F474127B68196A2F
:10286C007B685B6A0B43274913434B60274B012260
:10287C001A60FFF737FA386108E0FFF733FA0246BF
:10288C003B69D31A022B01D9032337E01D4B1B687C
:10289C0003F00073002BF0D02FE01C4B00221A60C9
:1028AC00FFF720FA386108E0FFF71CFA02463B6993
:1028BC00D31A022B01D9032320E0124B1B6803F01F
:1028CC000073002BF0D118E07B68DB69012B01D180
:1028DC00012313E00B4B5B68FB60FB6803F4803255
:1028EC007B681B6A9A4206D1FB6803F470127B6802
:1028FC005B6A9A4201D0012300E000231846183786
:10290C00BD4680BD00100240007000406000424295
:10291C0080B584B000AF786039607B68002B01D142
:10292C000123D0E06A4B1B6803F007033A689A4214
:10293C0010D9674B1B6823F0070265493B681343AA
:10294C000B60634B1B6803F007033A689A4201D093
:10295C000123B8E07B681B6803F00203002B20D036
:10296C007B681B6803F00403002B05D0594B5B6894
:10297C00584A43F4E06353607B681B6803F0080318
:10298C00002B05D0534B5B68524A43F460535360A1
:10299C00504B5B6823F0F0027B689B684D491343F6
:1029AC004B607B681B6803F00103002B40D07B68F5
:1029BC005B68012B07D1474B1B6803F40033002BDA
:1029CC0015D101237FE07B685B68022B07D1414B5B
:1029DC001B6803F00073002B09D1012373E03D4BFE
:1029EC001B6803F00203002B01D101236BE0394B70
:1029FC005B6823F003027B685B68364913434B60CA
:102A0C00FFF770F9F8600AE0FFF76CF90246FB6813
:102A1C00D31A41F28832934201D9032353E02D4B50
:102A2C005B6803F00C027B685B689B009A42EBD1FD
:102A3C00274B1B6803F007033A689A4210D2244BC9
:102A4C001B6823F0070222493B6813430B60204BA1
:102A5C001B6803F007033A689A4201D0012332E065
:102A6C007B681B6803F00403002B08D0194B5B68D0
:102A7C0023F4E0627B68DB68164913434B607B6888
:102A8C001B6803F00803002B09D0124B5B6823F47E
:102A9C0060527B681B69DB000E4913434B6000F0EE
:102AAC0021F802460B4B5B681B0903F00F030A4924
:102ABC00CB5C22FA03F3094A1360094B1B681846D6
:102ACC00FFF7CEF8002318461037BD4680BD00BF77
:102ADC0000200240001002408050000840000020FE
:102AEC004400002080B487B000AF0023FB600023BB
:102AFC00BB6000237B6100237B6000233B611E4B8A
:102B0C005B68FB60FB6803F00C03042B02D0082B02
:102B1C0003D027E0194B3B6127E0FB689B0C03F0CB
:102B2C000F03174AD35C7B60FB6803F48033002BE4
:102B3C0010D0114B5B685B0C03F00103114AD35CA2
:102B4C00BB607B680D4A02FB03F2BB68B2FBF3F37C
:102B5C007B6104E07B680C4A02FB03F37B617B69BD
:102B6C003B6102E0054B3B6100BF3B6918461C37DB
:102B7C00BD4680BC704700BF0010024000127A00B6
:102B8C0098500008A850000800093D0080B400AF20
:102B9C00024B1B681846BD4680BC704740000020A5
:102BAC0080B500AFFFF7F2FF0246054B5B681B0ACE
:102BBC0003F007030349CB5C22FA03F3184680BDEC
:102BCC00001002409050000880B500AFFFF7DEFF08
:102BDC000246054B5B68DB0A03F007030349CB5C39
:102BEC0022FA03F3184680BD0010024090500008F2
:102BFC0080B485B000AF78600A4B1B680A4AA2FB10
:102C0C0003235B0A7A6802FB03F3FB6000BFFB68DB
:102C1C005A1EFA60002BF9D100BF00BF1437BD4615
:102C2C0080BC704740000020D34D621080B582B04C
:102C3C0000AF78607B68002B01D1012341E07B68F9
:102C4C0093F83D30DBB2002B06D17B68002283F871
:102C5C003C207868FEF768FC7B68022283F83D20F4
:102C6C007B681A687B6804331946104600F030FC08
:102C7C007B68012283F846207B68012283F83E2082
:102C8C007B68012283F83F207B68012283F8402077
:102C9C007B68012283F841207B68012283F8422063
:102CAC007B68012283F843207B68012283F844204F
:102CBC007B68012283F845207B68012283F83D2044
:102CCC00002318460837BD4680BD000080B485B08F
:102CDC0000AF78607B6893F83D30DBB2012B01D0FC
:102CEC0001233AE07B68022283F83D207B681B6855
:102CFC00DA687B681B6842F00102DA607B681B684B
:102D0C00184A93420ED07B681B68B3F1804F09D0F0
:102D1C007B681B68144A934204D07B681B68134A77
:102D2C00934211D17B681B689B6803F00703FB601F
:102D3C00FB68062B10D07B681B681A687B681B68C5
:102D4C0042F001021A6007E07B681B681A687B6816
:102D5C001B6842F001021A60002318461437BD4666
:102D6C0080BC7047002C014000040040000800406B
:102D7C0080B582B000AF78607B68002B01D1012355
:102D8C0041E07B6893F83D30DBB2002B06D17B68C9
:102D9C00002283F83C20786800F039F87B68022226
:102DAC0083F83D207B681A687B680433194610460B
:102DBC0000F08EFB7B68012283F846207B680122A1
:102DCC0083F83E207B68012283F83F207B68012238
:102DDC0083F840207B68012283F841207B68012224
:102DEC0083F842207B68012283F843207B68012210
:102DFC0083F844207B68012283F845207B680122FC
:102E0C0083F83D20002318460837BD4680BD80B4AA
:102E1C0083B000AF786000BF0C37BD4680BC7047F4
:102E2C0080B584B000AF786039603B68002B09D165
:102E3C007B6893F83E30DBB2012B14BF01230023D7
:102E4C00DBB222E03B68042B09D17B6893F83F305E
:102E5C00DBB2012B14BF01230023DBB215E03B686E
:102E6C00082B09D17B6893F84030DBB2012B14BFDF
:102E7C0001230023DBB208E07B6893F84130DBB21E
:102E8C00012B14BF01230023DBB2002B01D0012343
:102E9C005EE03B68002B04D17B68022283F83E2065
:102EAC0013E03B68042B04D17B68022283F83F209B
:102EBC000BE03B68082B04D17B68022283F840208E
:102ECC0003E07B68022283F841207B681B680122A7
:102EDC003968184600F07CFD7B681B681E4A9342DB
:102EEC0007D17B681B685A6C7B681B6842F40042F4
:102EFC005A647B681B68184A93420ED07B681B6827
:102F0C00B3F1804F09D07B681B68144A934204D0FC
:102F1C007B681B68124A934211D17B681B689B68C3
:102F2C0003F00703FB60FB68062B10D07B681B6863
:102F3C001A687B681B6842F001021A6007E07B6824
:102F4C001B681A687B681B6842F001021A60002338
:102F5C0018461037BD4680BD002C014000040040CF
:102F6C000008004080B582B000AF78607B681B68B9
:102F7C001B6903F00203022B22D17B681B68DB6800
:102F8C0003F00203022B1BD17B681B686FF002025B
:102F9C001A617B6801221A777B681B689B6903F0B6
:102FAC000303002B03D0786800F076FA05E078680C
:102FBC0000F069FA786800F078FA7B6800221A77DA
:102FCC007B681B681B6903F00403042B22D17B680C
:102FDC001B68DB6803F00403042B1BD17B681B68A4
:102FEC006FF004021A617B6802221A777B681B68F7
:102FFC009B6903F44073002B03D0786800F04CFA03
:10300C0005E0786800F03FFA786800F04EFA7B68CB
:10301C0000221A777B681B681B6903F00803082BD6
:10302C0022D17B681B68DB6803F00803082B1BD1DB
:10303C007B681B686FF008021A617B6804221A77A0
:10304C007B681B68DB6903F00303002B03D07868F3
:10305C0000F022FA05E0786800F015FA786800F0C4
:10306C0024FA7B6800221A777B681B681B6903F0C3
:10307C001003102B22D17B681B68DB6803F0100354
:10308C00102B1BD17B681B686FF010021A617B68D8
:10309C0008221A777B681B68DB6903F44073002BEA
:1030AC0003D0786800F0F8F905E0786800F0EBF9E7
:1030BC00786800F0FAF97B6800221A777B681B6845
:1030CC001B6903F00103012B0ED17B681B68DB68C5
:1030DC0003F00103012B07D17B681B686FF0010221
:1030EC001A617868FEF7CCF97B681B681B6903F0E2
:1030FC008003802B0ED17B681B68DB6803F0800398
:10310C00802B07D17B681B686FF080021A6178688E
:10311C0000F0E9FC7B681B681B6903F04003402B43
:10312C000ED17B681B68DB6803F04003402B07D192
:10313C007B681B686FF040021A61786800F0BEF97A
:10314C007B681B681B6903F02003202B0ED17B6866
:10315C001B68DB6803F02003202B07D17B681B68FE
:10316C006FF020021A61786800F0B4FC00BF0837D9
:10317C00BD4680BD80B586B000AFF860B9607A609E
:10318C000023FB75FB6893F83C30012B01D1022323
:10319C00AEE0FB68012283F83C207B680C2B00F22C
:1031AC009F8001A252F823F0E9310008ED320008AB
:1031BC00ED320008ED32000829320008ED3200082B
:1031CC00ED320008ED3200086B320008ED320008D9
:1031DC00ED320008ED320008AB320008FB681B68CA
:1031EC00B968184600F0D6F9FB681B689A69FB6849
:1031FC001B6842F008029A61FB681B689A69FB68BD
:10320C001B6822F004029A61FB681B689969BB6811
:10321C001A69FB681B680A439A6164E0FB681B68C7
:10322C00B968184600F01CFAFB681B689A69FB68C1
:10323C001B6842F400629A61FB681B689A69FB6820
:10324C001B6822F480629A61FB681B689969BB68F1
:10325C001B691A02FB681B680A439A6143E0FB680E
:10326C001B68B968184600F065FAFB681B68DA69D8
:10327C00FB681B6842F00802DA61FB681B68DA69BC
:10328C00FB681B6822F00402DA61FB681B68D969D1
:10329C00BB681A69FB681B680A43DA6123E0FB68A8
:1032AC001B68B968184600F0AFFAFB681B68DA694E
:1032BC00FB681B6842F40062DA61FB681B68DA6920
:1032CC00FB681B6822F48062DA61FB681B68D969B1
:1032DC00BB681B691A02FB681B680A43DA6102E0CF
:1032EC000123FB7500BFFB68002283F83C20FB7DAB
:1032FC0018461837BD4680BD80B584B000AF7860E5
:10330C0039600023FB737B6893F83C30012B01D1AF
:10331C000223B4E07B68012283F83C207B68022204
:10332C0083F83D207B681B689B68BB60BB6823F0FF
:10333C007703BB60BB6823F47F43BB607B681B686F
:10334C00BA689A603B681B68B3F5005F3ED0B3F572
:10335C00005F00F28780B3F5805F00F08680B3F5E4
:10336C00805F7FD8702B1AD0702B7BD8602B50D0FD
:10337C00602B77D8502B3CD0502B73D8402B58D087
:10338C00402B6FD8302B64D0302B6BD8202B60D0D7
:10339C00202B67D8002B5CD0102B5AD062E07B68B6
:1033AC0018683B6899683B685A683B68DB6800F0B2
:1033BC00F0FA7B681B689B68BB60BB6843F07703C3
:1033CC00BB607B681B68BA689A604FE07B681868C2
:1033DC003B6899683B685A683B68DB6800F0D9FA2F
:1033EC007B681B689A687B681B6842F480429A6011
:1033FC003CE07B6818683B6859683B68DB681A4698
:10340C0000F050FA7B681B685021184600F0A7FAB0
:10341C002CE07B6818683B6859683B68DB681A4687
:10342C0000F06EFA7B681B686021184600F097FA72
:10343C001CE07B6818683B6859683B68DB681A4677
:10344C0000F030FA7B681B684021184600F087FAC0
:10345C000CE07B681A683B681B681946104600F044
:10346C007EFA03E00123FB7300E000BF7B680122BE
:10347C0083F83D207B68002283F83C20FB7B1846B8
:10348C001037BD4680BD80B483B000AF786000BFFC
:10349C000C37BD4680BC704780B483B000AF7860F9
:1034AC0000BF0C37BD4680BC704780B483B000AF02
:1034BC00786000BF0C37BD4680BC704780B483B0C9
:1034CC0000AF786000BF0C37BD4680BC7047000071
:1034DC0080B485B000AF786039607B681B68FB6096
:1034EC007B68294A93420BD07B68B3F1804F07D09D
:1034FC007B68264A934203D07B68254A934208D1C5
:10350C00FB6823F07003FB603B685B68FA6813434D
:10351C00FB607B681C4A93420BD07B68B3F1804FF5
:10352C0007D07B68194A934203D07B68184A9342B0
:10353C0008D1FB6823F44073FB603B68DB68FA68D6
:10354C001343FB60FB6823F080023B685B69134309
:10355C00FB607B68FA681A603B689A687B68DA6281
:10356C003B681A687B689A627B68074A934203D16E
:10357C003B681A697B681A637B6801225A6100BF39
:10358C001437BD4680BC7047002C0140000400403D
:10359C000008004080B487B000AF786039607B6869
:1035AC001B6A7B617B681B6A23F001027B681A62D1
:1035BC007B685B683B617B689B69FB60FB6823F005
:1035CC007003FB60FB6823F00303FB603B681B6824
:1035DC00FA681343FB607B6923F002037B613B6851
:1035EC009B687A6913437B617B681C4A93420CD1BC
:1035FC007B6923F008037B613B68DB687A691343C2
:10360C007B617B6923F004037B617B68134A9342E3
:10361C0011D13B6923F480733B613B6923F4007344
:10362C003B613B685B693A6913433B613B689B694F
:10363C003A6913433B617B683A695A607B68FA6864
:10364C009A613B685A687B685A637B687A691A622C
:10365C0000BF1C37BD4680BC704700BF002C01402A
:10366C0080B487B000AF786039607B681B6A7B617F
:10367C007B681B6A23F010027B681A627B685B68AC
:10368C003B617B689B69FB60FB6823F4E043FB6058
:10369C00FB6823F44073FB603B681B681B02FA68F1
:1036AC001343FB607B6923F020037B613B689B68C1
:1036BC001B017A6913437B617B681D4A93420DD1D0
:1036CC007B6923F080037B613B68DB681B017A69B3
:1036DC0013437B617B6923F040037B617B68144A55
:1036EC00934213D13B6923F480633B613B6923F420
:1036FC0000633B613B685B699B003A6913433B6128
:10370C003B689B699B003A6913433B617B683A6950
:10371C005A607B68FA689A613B685A687B689A635E
:10372C007B687A691A6200BF1C37BD4680BC704743
:10373C00002C014080B487B000AF786039607B68A2
:10374C001B6A7B617B681B6A23F480727B681A623C
:10375C007B685B683B617B68DB69FB60FB6823F023
:10376C007003FB60FB6823F00303FB603B681B6882
:10377C00FA681343FB607B6923F400737B613B683D
:10378C009B681B027A6913437B617B681D4A9342D9
:10379C000DD17B6923F400637B613B68DB681B0202
:1037AC007A6913437B617B6923F480637B617B685B
:1037BC00144A934213D13B6923F480533B613B6918
:1037CC0023F400533B613B685B691B013A6913436B
:1037DC003B613B689B691B013A6913433B617B6806
:1037EC003A695A607B68FA68DA613B685A687B68A8
:1037FC00DA637B687A691A6200BF1C37BD4680BCED
:10380C00704700BF002C014080B487B000AF7860D7
:10381C0039607B681B6A3B617B681B6A23F48052AE
:10382C007B681A627B685B687B617B68DB69FB6029
:10383C00FB6823F4E043FB60FB6823F44073FB60FC
:10384C003B681B681B02FA681343FB603B6923F45B
:10385C0000533B613B689B681B033A6913433B6114
:10386C007B680F4A934209D17B6923F480437B61C7
:10387C003B685B699B017A6913437B617B687A695E
:10388C005A607B68FA68DA613B685A687B681A642C
:10389C007B683A691A6200BF1C37BD4680BC704712
:1038AC00002C014080B487B000AFF860B9607A603A
:1038BC00FB681B6A7B61FB681B6A23F00102FB68D7
:1038CC001A62FB689B693B613B6923F0F0033B6127
:1038DC007B681B013A6913433B617B6923F00A0344
:1038EC007B617A69BB6813437B61FB683A699A61B7
:1038FC00FB687A691A6200BF1C37BD4680BC7047F2
:10390C0080B487B000AFF860B9607A60FB681B6A5E
:10391C007B61FB681B6A23F01002FB681A62FB6870
:10392C009B693B613B6923F470433B617B681B03E0
:10393C003A6913433B617B6923F0A0037B61BB684D
:10394C001B017A6913437B61FB683A699A61FB68D6
:10395C007A691A6200BF1C37BD4680BC704780B4C0
:10396C0085B000AF786039607B689B68FB60FB6852
:10397C0023F07003FB603A68FB68134343F00703C2
:10398C00FB607B68FA689A6000BF1437BD4680BC48
:10399C00704780B487B000AFF860B9607A603B6064
:1039AC00FB689B687B617B6923F47F437B613B688D
:1039BC001A027B681A43BB6813437A6913437B6111
:1039CC00FB687A699A6000BF1C37BD4680BC7047A3
:1039DC0080B487B000AFF860B9607A60BB6803F060
:1039EC001F03012202FA03F37B61FB681A6A7B69ED
:1039FC00DB431A40FB681A62FB681A6ABB6803F067
:103A0C001F03796801FA03F31A43FB681A6200BFBB
:103A1C001C37BD4680BC704780B485B000AF786061
:103A2C0039607B6893F83C30012B01D1022346E0CE
:103A3C007B68012283F83C207B68022283F83D20BE
:103A4C007B681B685B68FB607B681B689B68BB6062
:103A5C00FB6823F07003FB603B681B68FA68134338
:103A6C00FB607B681B68FA685A607B681B68164AA7
:103A7C0093420ED07B681B68B3F1804F09D07B68F2
:103A8C001B68124A934204D07B681B68104A93420D
:103A9C000CD1BB6823F08003BB603B685B68BA68E1
:103AAC001343BB607B681B68BA689A607B68012211
:103ABC0083F83D207B68002283F83C2000231846C5
:103ACC001437BD4680BC7047002C014000040040F8
:103ADC000008004080B483B000AF786000BF0C37A2
:103AEC00BD4680BC704780B483B000AF786000BF27
:103AFC000C37BD4680BC704780B582B000AF786093
:103B0C007B68002B01D1012342E07B6893F84130A4
:103B1C00DBB2002B06D17B68002283F8402078684A
:103B2C00FDF76CFD7B68242283F841207B681B68C1
:103B3C00DA687B681B6822F40052DA60786800F05F
:103B4C0071FD7B681B681A697B681B6822F49042C4
:103B5C001A617B681B685A697B681B6822F02A0211
:103B6C005A617B681B68DA687B681B6842F40052F8
:103B7C00DA607B6800225A647B68202283F841203B
:103B8C007B68202283F842207B6800225A63002342
:103B9C0018460837BD4680BD80B58AB002AFF860C4
:103BAC00B9603B601346FB8000237B61FB6893F894
:103BBC004130DBB2202B6DD1BB68002B02D0FB88CF
:103BCC00002B01D1012366E0FB6800225A64FB68DC
:103BDC00212283F84120FEF785F87861FB68FA888A
:103BEC009A84FB68FA88DA84FB689B68B3F5805F7B
:103BFC0008D1FB681B69002B04D10023FB61BB6857
:103C0C00BB6103E0BB68FB610023BB612AE03B683E
:103C1C0000937B6900228021F86800F0F9FA0346D2
:103C2C00002B01D0032336E0FB69002B0BD1BB69C1
:103C3C001B881A46FB681B68C2F308025A60BB69F2
:103C4C000233BB6107E0FB691A78FB681B685A609A
:103C5C00FB690133FB61FB68DB8C9BB2013B9AB2C5
:103C6C00FB68DA84FB68DB8C9BB2002BCFD13B6802
:103C7C0000937B6900224021F86800F0C9FA0346E2
:103C8C00002B01D0032306E0FB68202283F841209F
:103C9C00002300E0022318462037BD4680BD0000FB
:103CAC0080B5BAB000AF78607B681B681B68C7F83A
:103CBC00E4307B681B68DB68C7F8E0307B681B6806
:103CCC005B69C7F8DC300023C7F8D8300023C7F88D
:103CDC00D430D7F8E43003F00F03C7F8D830D7F856
:103CEC00D830002B0FD1D7F8E43003F02003002B91
:103CFC0009D0D7F8E03003F02003002B03D078680C
:103D0C0000F0D1FB5BE2D7F8D830002B00F0DE805E
:103D1C00D7F8DC3003F00103002B06D1D7F8E030E4
:103D2C0003F49073002B00F0D180D7F8E43003F04B
:103D3C000103002B0BD0D7F8E03003F48073002B79
:103D4C0005D07B685B6C43F001027B685A64D7F842
:103D5C00E43003F00403002B0BD0D7F8DC3003F075
:103D6C000103002B05D07B685B6C43F002027B687F
:103D7C005A64D7F8E43003F00203002B0BD0D7F8C9
:103D8C00DC3003F00103002B05D07B685B6C43F047
:103D9C0004027B685A64D7F8E43003F00803002B64
:103DAC0011D0D7F8E03003F02003002B05D1D7F861
:103DBC00DC3003F00103002B05D07B685B6C43F017
:103DCC0008027B685A647B685B6C002B00F0F28104
:103DDC00D7F8E43003F02003002B08D0D7F8E030FC
:103DEC0003F02003002B02D0786800F05CFB7B68AA
:103DFC001B685B6903F04003002B14BF01230023F5
:103E0C00DBB2C7F8D4307B685B6C03F00803002B83
:103E1C0003D1D7F8D430002B4FD0786800F066FA75
:103E2C007B681B685B6903F04003002B41D07B6807
:103E3C001B681433C7F89C30D7F89C3053E8003F0C
:103E4C00C7F89830D7F8983023F04003C7F8D03033
:103E5C007B681B681433D7F8D020C7F8A820C7F8A4
:103E6C00A430D7F8A410D7F8A82041E80023C7F84D
:103E7C00A030D7F8A030002BD9D17B68DB6B002B9E
:103E8C0013D07B68DB6B7E4A5A637B68DB6B18460E
:103E9C00FEF77AF80346002B16D07B68DB6B5B6B66
:103EAC007A68D26B104698470EE0786800F09CF95F
:103EBC000AE0786800F098F906E0786800F094F968
:103ECC007B6800225A6475E100BF73E17B681B6B51
:103EDC00012B40F04F81D7F8E43003F01003002B96
:103EEC0000F04881D7F8E03003F01003002B00F00D
:103EFC0041810023BB607B681B681B68BB607B68CF
:103F0C001B685B68BB60BB687B681B685B6903F004
:103F1C004003002B00F0B6807B68DB6B1B685B6892
:103F2C00A7F8BE30B7F8BE30002B00F045817B6897
:103F3C009B8DB7F8BE209A4280F03E817B68B7F823
:103F4C00BE20DA857B68DB6B9B69202B00F08880B8
:103F5C007B681B680C33C7F88830D7F8883053E877
:103F6C00003FC7F88430D7F8843023F48073C7F847
:103F7C00B8307B681B680C33D7F8B820C7F894208E
:103F8C00C7F89030D7F89010D7F8942041E8002368
:103F9C00C7F88C30D7F88C30002BD9D17B681B68D4
:103FAC0014337B677B6F53E8003F3B673B6F23F019
:103FBC000103C7F8B4307B681B681433D7F8B420FE
:103FCC00C7F88020FB67F96FD7F8802041E8002301
:103FDC00BB67BB6F002BE1D17B681B6814333B665E
:103FEC003B6E53E8003FFB65FB6D23F04003C7F8C5
:103FFC00B0307B681B681433D7F8B020FA66BB6608
:10400C00B96EFA6E41E800237B667B6E002BE3D120
:10401C007B68202283F842207B6800221A637B682D
:10402C001B680C33FB64FB6C53E8003FBB64BB6C3C
:10403C0023F01003C7F8AC307B681B680C33D7F83F
:10404C00AC20BA657B65796DBA6D41E800233B65A0
:10405C003B6D002BE3D17B68DB6B1846FDF759FFFA
:10406C007B6802225A637B689A8D7B68DB8D9BB2DE
:10407C00D31A9BB21946786800F0BFF89CE000BFD9
:10408C00BD4300087B689A8D7B68DB8D9BB2D31A8D
:10409C00A7F8CE307B68DB8D9BB2002B00F08E80B6
:1040AC00B7F8CE30002B00F089807B681B680C338E
:1040BC00BB63BB6B53E8003F7B637B6B23F4907358
:1040CC00C7F8C8307B681B680C33D7F8C8207A64F3
:1040DC003B64396C7A6C41E80023FB63FB6B002B6F
:1040EC00E3D17B681B6814337B627B6A53E8003F27
:1040FC003B623B6A23F00103C7F8C4307B681B6842
:10410C001433D7F8C4203A63FB62F96A3A6B41E87E
:10411C000023BB62BB6A002BE3D17B68202283F8AF
:10412C0042207B6800221A637B681B680C333B615E
:10413C003B6953E8003FFB60FB6823F01003C7F8B2
:10414C00C0307B681B680C33D7F8C020FA61BB61A8
:10415C00B969FA6941E800237B617B69002BE3D1E3
:10416C007B6802225A63B7F8CE301946786800F0A3
:10417C0044F823E0D7F8E43003F08003002B09D097
:10418C00D7F8E03003F08003002B03D0786800F000
:10419C0023F914E0D7F8E43003F04003002B0ED0E1
:1041AC00D7F8E03003F04003002B08D0786800F01B
:1041BC0062F904E000BF02E000BF00E000BFE83796
:1041CC00BD4680BD80B483B000AF786000BF0C37B3
:1041DC00BD4680BC704780B483B000AF786000BF30
:1041EC000C37BD4680BC704780B483B000AF78609C
:1041FC0000BF0C37BD4680BC704780B483B000AFA5
:10420C0078600B467B8000BF0C37BD4680BC704786
:10421C0080B590B000AFF860B9603B601346FB719D
:10422C0050E0BB6CB3F1FF3F4CD0BB6C002B07D004
:10423C00FDF758FD02463B68D31ABA6C9A4241D23C
:10424C00FB681B680C33BB62BB6A53E8003F7B62A4
:10425C007B6A23F4D073FB63FB681B680C33FA6B2B
:10426C007A633B63396B7A6B41E80023FB62FB6A30
:10427C00002BE5D1FB681B6814337B617B6953E829
:10428C00003F3B613B6923F00103BB63FB681B6888
:10429C001433BA6B3A62FB61F9693A6A41E800235C
:1042AC00BB61BB69002BE5D1FB68202283F8412060
:1042BC00FB68202283F84220FB68002283F8402010
:1042CC0003230FE0FB681B681A68BB681340BA68CD
:1042DC009A420CBF01230023DBB21A46FB799A42A7
:1042EC009FD0002318464037BD4680BD80B495B0A2
:1042FC0000AF78607B681B680C337B637B6B53E887
:10430C00003F3B633B6B23F49073FB647B681B683F
:10431C000C33FA6C3A64FB63F96B3A6C41E800239A
:10432C00BB63BB6B002BE5D17B681B6814333B6212
:10433C003B6A53E8003FFB61FB6923F00103BB645C
:10434C007B681B681433BA6CFA62BB62B96AFA6A8E
:10435C0041E800237B627B6A002BE5D17B681B6BF9
:10436C00012B19D17B681B680C33FB60FB6853E88D
:10437C00003FBB60BB6823F010037B647B681B6849
:10438C000C337A6CBA617B617969BA6941E80023B4
:10439C003B613B69002BE5D17B68202283F84220EE
:1043AC007B6800221A6300BF5437BD4680BC70473F
:1043BC0080B584B000AF78607B685B6AFB60FB689B
:1043CC000022DA85FB680022DA84F868FFF70CFF1C
:1043DC0000BF1037BD4680BD80B485B000AF78609B
:1043EC007B6893F84130DBB2212B3ED17B689B6814
:1043FC00B3F5805F14D17B681B69002B10D17B68EF
:10440C001B6AFB60FB681B881A467B681B68C2F33F
:10441C0008025A607B681B6A9A1C7B681A6208E067
:10442C007B681B6A591C7A6811621A787B681B6856
:10443C005A607B68DB8C9BB2013B9BB27A68194655
:10444C00D184002B0FD17B681B68DA687B681B68F2
:10445C0022F08002DA607B681B68DA687B681B6874
:10446C0042F04002DA60002300E0022318461437C1
:10447C00BD4680BC704780B582B000AF78607B6869
:10448C001B68DA687B681B6822F04002DA607B6884
:10449C00202283F841207868FFF794FE0023184609
:1044AC000837BD4680BD80B58CB000AF78607B68A6
:1044BC0093F84230DBB2222B40F0AE807B689B68D5
:1044CC00B3F5805F17D17B681B69002B13D10023D8
:1044DC00FB627B689B6ABB627B681B685B689BB2F8
:1044EC00C3F308039AB2BB6A1A807B689B6A9A1C56
:1044FC007B689A6226E07B689B6AFB620023BB6246
:10450C007B689B68B3F5805F07D07B689B68002B4A
:10451C000AD17B681B69002B06D17B681B685B6822
:10452C00DAB2FB6A1A7008E07B681B685B68DBB266
:10453C0003F07F03DAB2FB6A1A707B689B6A5A1C21
:10454C007B689A627B68DB8D9BB2013B9BB27A687D
:10455C001946D185002B5DD17B681B68DA687B68B6
:10456C001B6822F02002DA607B681B68DA687B68C3
:10457C001B6822F48072DA607B681B685A697B685E
:10458C001B6822F001025A617B68202283F84220CA
:10459C007B6800225A637B681B6B012B35D17B68CF
:1045AC0000221A637B681B680C337B617B6953E8C0
:1045BC00003F3B613B6923F010037B627B681B6807
:1045CC000C337A6A3A62FB61F9693A6A41E8002372
:1045DC00BB61BB69002BE5D17B681B681B6803F0D2
:1045EC001003102B0AD10023FB607B681B681B682F
:1045FC00FB607B681B685B68FB60FB687B689B8D62
:10460C0019467868FFF7F9FD02E07868FFF7E3FDDB
:10461C00002302E0002300E0022318463037BD4699
:10462C0080BD000080B584B000AF78607B681B68EB
:10463C001B6923F440517B68DA687B681B680A436A
:10464C001A617B689A687B681B691A437B685B6993
:10465C001343BB607B681B68DB6823F4B05323F007
:10466C000C037A681268B9680B43D3607B681B68CB
:10467C005B6923F440717B689A697B681B680A4309
:10468C005A617B681B682C4A934203D1FEF79CFA53
:10469C00F86002E0FEF784FAF860FA6813469B00B3
:1046AC0013449A001A447B685B689B00B2FBF3F3DB
:1046BC00224AA2FB03235B091901FA6813469B00EB
:1046CC0013449A001A447B685B689B00B2FBF3F2BC
:1046DC001A4BA3FB02035B09642000FB03F3D31A00
:1046EC001B013233154AA2FB03235B0903F0F003D1
:1046FC001944FA6813469B0013449A001A447B68C9
:10470C005B689B00B2FBF3F20C4BA3FB02035B094F
:10471C00642000FB03F3D31A1B013233074AA2FBBC
:10472C0003235B0903F00F027B681B680A449A6041
:10473C0000BF1037BD4680BD003801401F85EB51CE
:10474C00014B1868704700BF4C00002070B5002664
:10475C000C4D0D4C641BA410A64209D100F05CFC5E
:10476C0000260A4D0A4C641BA410A64205D170BD4C
:10477C0055F8043B98470136EEE755F8043B98474B
:10478C000136F2E7E0500008E0500008E050000865
:10479C00E450000803460244934200D1704703F8EA
:1047AC00011BF9E70EB46FF0004100B59CB01DABD6
:1047BC0002900690079104910848094953F8042B7C
:1047CC000591006802A9019300F068F80022029B91
:1047DC001A701CB05DF804EB03B070474C0000205D
:1047EC000802FFFF2DE9F0478E6882469E420C4678
:1047FC0090461F4638D88A8912F4906F32D02568BB
:10480C0009690133A5EB010965694B4405EB4505C5
:10481C0005EBD5756D109D4238BF1D46530531D53E
:10482C00294600F053FB064650B90C234FF0FF30DD
:10483C00CAF80030A38943F04003A381BDE8F08798
:10484C004A46216900F0CEFAA38923F4906343F021
:10485C008003A38126614E4426603E466561A5EB2C
:10486C000905A560BE4200D93E4632464146206845
:10487C0000F0C6FAA36822689B1B32440020A36098
:10488C002260DBE72A4600F07BFB06460028E1D1DC
:10489C005046216900F0CEFAC7E700002DE9F04F31
:1048AC0098468B8907461B060D4614469DB00ED5BF
:1048BC000B6963B9402100F009FB2860286120B91D
:1048CC000C233B604FF0FF30D1E040236B610023A1
:1048DC00099320238DF8293030234FF00109CDF8AE
:1048EC000C80DFF8A4818DF82A3023469A4613F801
:1048FC00012B0AB1252AF9D1BAEB040B0BD05B467C
:10490C00224629463846FFF76DFF013000F0AA8099
:10491C00099A5A4409929AF80030002B00F0A280B0
:10492C0000234FF0FF32CDE905230AF1010A04936D
:10493C0007938DF853301A935446052214F8011B33
:10494C00514800F041FA049AD8B9D00644BF20234C
:10495C008DF85330110744BF2B238DF853309AF840
:10496C0000302A2B15D0544600204FF00A0C079A21
:10497C00214611F8013B303B092B4ED9B0B10792BF
:10498C0014E0A0EB080309FA03F31343A2460493C3
:10499C00D2E7039B191D1B680391002BBBBF5B4225
:1049AC0042F0020207930793B8BF049223782E2B90
:1049BC000CD163782A2B35D1039B02341A1D1B684A
:1049CC000392002BB8BF4FF0FF330593DFF8C8A05C
:1049DC0003225046217800F0F7F940B14023A0EBB8
:1049EC000A0003FA00F0049B01340343049314F807
:1049FC00011B062225488DF8281000F0E5F9002847
:104A0C0038D0234B1BBB039B073323F0070308331E
:104A1C000393099B3344099367E70C4601200CFB75
:104A2C000232A5E700234FF00A0C19460134059316
:104A3C00204610F8012B303A092A03D9002BC5D097
:104A4C000591C3E7044601230CFB0121F0E703ABFE
:104A5C0000932A4638460F4B04A9AFF30080421C42
:104A6C000646D6D1AB895B063FF52CAF09981DB035
:104A7C00BDE8F08F03AB00932A463846054B04A9DA
:104A8C0000F07CF8EBE700BFAA500008B450000817
:104A9C0000000000F1470008B05000082DE9F04775
:104AAC00164699468A680B6907469342B8BF134667
:104ABC00336091F843200C46DDF820800AB10133B5
:104ACC0033602368990642BF33680233336025682C
:104ADC0015F0060506D104F1190AE36832689B1A31
:104AEC00AB4228DC94F84320131E226818BF012324
:104AFC0092062DD44946384604F14302C047013092
:104B0C0020D02368E56803F00603042B18BF0025AA
:104B1C0032684FF00006A36808BFAD1A226908BFBF
:104B2C0025EAE5759342C4BF9B1AED181A34B542B9
:104B3C001AD1002008E00123524649463846C047A6
:104B4C00013003D14FF0FF30BDE8F0870135C4E7E9
:104B5C003020E11881F843005A1C94F84510224487
:104B6C00023382F84310C5E70123224649463846F2
:104B7C00C0470130E6D00136D9E700002DE9FF47E8
:104B8C000C46277E9146782F80469A460C9904F164
:104B9C00430207D8622F0AD8002F00F0D980582F73
:104BAC0000F0A48004F1420684F842703AE0A7F1C8
:104BBC006303152BF6D801A050F823F0214C000804
:104BCC00354C0008B14B0008B14B0008B14B000844
:104BDC00B14B0008354C0008B14B0008B14B000834
:104BEC00B14B0008B14B0008434D0008654C000860
:104BFC00254D0008B14B0008B14B0008654D00086D
:104C0C00B14B0008654C0008B14B0008B14B0008D3
:104C1C002D4D00080B6804F142061A1D1B680A6032
:104C2C0084F842300123A4E0256808682E0600F1C0
:104C3C0004030AD505680B60002D03DA2D236D42A1
:104C4C0084F843300A235E4819E015F0400F0568DC
:104C5C000B6018BF2DB2EFE70B682568181D0860B4
:104C6C00280601D51D6802E06906FBD51D886F2F4B
:104C7C000CBF08230A235248002184F843106668AD
:104C8C00002EA8BF2168A660A4BF21F004012160FA
:104C9C000DB9002E4DD01646B5FBF3F103FB1157A1
:104CAC00C75D06F8017D2F46BB420D46F4D9082B93
:104CBC000BD12368DF0708D5236961689942DEBFF1
:104CCC00302306F8013C06F1FF36921B22614B465D
:104CDC0021464046CDF800A003AAFFF7DFFE0130C5
:104CEC004CD14FF0FF3004B0BDE8F087344884F865
:104CFC0045700E68236856F8045B1F060E6014D5C9
:104D0C00D90744BF43F0200323601DB9236823F067
:104D1C00200323601023AFE7236843F020032360B4
:104D2C007823284884F84530E3E75E0648BFADB2E7
:104D3C00E6E71646BBE70B6826681D1D60690D602B
:104D4C0035061B6801D5186002E07106FBD518808A
:104D5C00002316462361BAE70B681A1D0A601E6809
:104D6C0000213046626800F02FF808B1801B6060AB
:104D7C0063682361002384F84330A8E73246494630
:104D8C0040462369D0470130ABD023689B0713D42E
:104D9C00E068039B9842B8BF1846A4E7012332464B
:104DAC0049464046D04701309BD00135E368039912
:104DBC005B1AAB42F2DCEBE7002504F11906F5E7D0
:104DCC00BB500008CC500008034610B5C9B20244D1
:104DDC009342184601D1002003E0047801338C4241
:104DEC00F6D110BD0A44914200F1FF3300D1704757
:104DFC0010B511F8014B914203F8014FF9D110BDD8
:104E0C00884210B501EB020402D98442234607D82C
:104E1C00431EA14208D011F8012B03F8012FF8E72B
:104E2C00014602448A4200D110BD13F8014D02F82C
:104E3C00014DF7E738B50546002943D051F8043C3D
:104E4C000C1F002BB8BFE41800F0D0F81E4A1368F2
:104E5C00104633B9636014602846BDE8384000F052
:104E6C00CBB8A3420AD921686218934201BF1A68D1
:104E7C005B685218226063600460EDE71A465B6859
:104E8C000BB1A342FAD911685018A0420BD120687B
:104E9C000144501883421160DED118685B680144EC
:104EAC0011605360D8E702D90C232B60D4E720683B
:104EBC0021188B4201BF19685B6809182160636077
:104ECC005460C9E738BD00BFD8000020F8B5CD1C30
:104EDC0025F0030508350C2D38BF0C25002D064692
:104EEC0001DBA94203D90C2333600020F8BD00F08C
:104EFC007DF821490A6814469CB9204F3B6823B9B8
:104F0C002146304600F062F838602946304600F001
:104F1C005DF8431C23D10C233046336000F06CF851
:104F2C00E3E723685B1B17D40B2B03D923601C44CA
:104F3C00256004E06368A2420CBF0B6053603046EE
:104F4C0000F05AF804F10B00231D20F00700C21AE0
:104F5C00CCD01B1AA350C9E722466468CCE7C41C0A
:104F6C0024F00304A042E3D0211A304600F02EF8BE
:104F7C000130DDD1CFE700BFD8000020DC000020DD
:104F8C00F8B5074614460E4621B91146BDE8F8405F
:104F9C00FFF79CBF22B9FFF74DFF25462846F8BD09
:104FAC0000F030F8A0420FD221463846FFF78EFFB2
:104FBC0005460028F2D031462246FFF713FF314652
:104FCC003846FFF737FFE9E73546E7E738B5002302
:104FDC00054D044608462B60FCF7A0FB431C02D190
:104FEC002B6803B1236038BDDC020020014800F0BF
:104FFC0011B800BFE4020020014800F00CB800BF5B
:10500C00E402002051F8043C181F002BBCBF0B58C5
:10501C00C018704770477047F8B500BFF8BC08BCA3
:10502C009E467047F8B500BFF8BC08BC9E4670475A
:10503C0021375345473A256420256423200D000071
:10504C0021375345473A30256420256423200D0031
:10505C0021375345473A25642030256423200D0021
:10506C0021375345473A3025642030256423200DE1
:10507C00000000000000000000000000010203041A
:10508C0006070809000000000102030402030405DE
:10509C00060708090A0B0C0D0E0F10100102232D28
:1050AC00302B2000686C4C00656667454647003025
:1050BC003132333435363738394142434445460072
:1050CC003031323334353637383961626364656672
:0450DC0000000000D0
:0450E0003101000892
:0450E4000D010008B2
:1050E800000801400008014000080140001001408C
:1050F800000202000400002001000000010000007E
:105108000B0000000700000002000000050000007E
:105118000700000002000000050000001400000065
:105128000024F400100000000100000050000020DE
:105138000000000000000000000000000000000067
:105148000000000000000000000000000000000057
:105158000000000000000000000000000000000047
:105168000000000000000000000000000000000037
:105178000000000000000000000000000000000027
:105188000000000000000000000000000000000017
:0400000508001BF5DF
:00000001FF
