:020000040800F2
:100000000050002055160008D1110008D711000833
:10001000DD110008E3110008E911000800000000EC
:10002000000000000000000000000000EF110008C8
:10003000FB1100080000000007120008131200085E
:100040009D1600089D1600089D1600089D160008C4
:100050009D1600089D1600089D1600089D160008B4
:100060009D1600089D1600089D1600089D160008A4
:100070009D1600089D1600089D1600089D16000894
:100080009D1600089D1600089D1600089D16000884
:100090009D1600089D1600089D1600089D16000874
:1000A0009D1600089D1600089D1600089D16000864
:1000B000211200089D1600089D1600089D160008D4
:1000C0009D1600089D1600089D1600089D16000844
:1000D0009D1600089D1600089D1600089D16000834
:1000E0009D1600089D1600089D16000800000000DF
:1000F0000000000000000000000000000000000000
:0C01000000000000000000005FF808F1A3
:10010C0010B5054C237833B9044B13B10448AFF345
:10011C0000800123237010BDB000002000000000FF
:10012C007840000808B5034B1BB103490348AFF3F3
:10013C00008008BD00000000B400002078400008DA
:10014C0080B582B000AF78607B68002B48D14D4AF7
:10015C007B6852F823204C497B685B010B441833B5
:10016C001A60494A7B685B011344103300221A6001
:10017C00454A7B685B0113440C3300221A60434AE6
:10018C007B6832F81310404A7B685B0113441C33C4
:10019C000A461A803C4A7B685B01134408330122EF
:1001AC001A60394A7B685B01134408331A68364974
:1001BC007B685B010B4404331A60334A7B685B0138
:1001CC00134404331A6830497B685B010B441A6092
:1001DC002D4A7B685B011344143364221A604CE093
:1001EC00284A7B6852F8232027497B685B010B4423
:1001FC0018331A60244A7B685B01134410330022C5
:10020C001A60214A7B685B0113440C3300221A608C
:10021C001E4A7B6832F813101B4A7B685B0113443F
:10022C001C330A461A80184A7B685B011344083356
:10023C0001221A60144A7B685B01134408331A6864
:10024C0011497B685B010B4404331A600E4A7B68CE
:10025C005B01134404331A680B497B685B010B4444
:10026C001A60094A7B685B011344143364221A60D8
:10027C007B68013B1846FFF763FF00BF0837BD469C
:10028C0080BD00BF000000201C01002010000020D9
:10029C0080B500AF0320FFF753FF00BF80BD000007
:1002AC0080B483B000AF7860054A7B685B0113446F
:1002BC000C331B6818460C37BD4680BC704700BF1A
:1002CC001C01002080B582B000AF78607B68002BE9
:1002DC0040F08B808D4A7B685B01134404331A68B1
:1002EC008A497B685B010B441A60884A7B685B0116
:1002FC00134408331A6885497B685B010B4404334B
:10030C001A60834A7B6852F8232082497B6831F853
:10031C0013301946104601F0B1FC034619467B4ACE
:10032C007B685B01134408331960784A7B685B0176
:10033C0013441A6875497B685B010B4404331B68D2
:10034C009A4240F0DF80714A7B685B0113440433AE
:10035C001A686E497B685B010B4408331B689A4230
:10036C0040F0D080694A7B685B01134408331B68FA
:10037C00002B24D1654A7B685B0113440C330122AA
:10038C001A60624A7B685B01134414331B68002BB0
:10039C000DDD5E4A7B685B01134414331B685A1EE7
:1003AC005A497B685B010B4414331A60AAE0574A24
:1003BC007B685B011344103301221A60A2E0534A9C
:1003CC007B685B0113440C3300221A604F4A7B6834
:1003DC005B011344103300221A604C4A7B685B01AA
:1003EC001344143364221A608CE0484A7B685B0126
:1003FC00134404331A6845497B685B010B441A604B
:10040C00424A7B685B01134408331A683F497B6896
:10041C005B010B4404331A603D4A7B6852F823207D
:10042C003C497B6831F813301946104601F026FC24
:10043C0003461946354A7B685B011344083319603F
:10044C00324A7B685B0113441A6830497B685B0154
:10045C000B4404331B689A424FD12C4A7B685B01D6
:10046C00134404331A6829497B685B010B44083335
:10047C001B689A4241D1254A7B685B0113440833BF
:10048C001B68002B24D1214A7B685B0113440C337D
:10049C0001221A601D4A7B685B01134414331B68EC
:1004AC00002B0DDD194A7B685B01134414331B6868
:1004BC005A1E16497B685B010B4414331A601CE00E
:1004CC00124A7B685B011344103301221A6014E05A
:1004DC000E4A7B685B0113440C3300221A600B4AF2
:1004EC007B685B011344103300221A60074A7B6857
:1004FC005B011344143364221A607B68013B184679
:10050C00FFF7E0FE00BF0837BD4680BD1C01002090
:10051C00000000201000002080B500AF0320FFF782
:10052C00D1FE00BF80BD000080B584B000AF786004
:10053C00774A7B6852F83320764BA3FB02135B0996
:10054C00642101FB03F3D31A002B26D1704A7B687C
:10055C0052F833306F4AA2FB03235B09FB60F86847
:10056C0001F044F87B68002B17D16B4B1B68002BF8
:10057C0013D06A4B1B68022B0FD1694B1B6864228A
:10058C0002FB03F2FB68D21A13469B0013445B0078
:10059C00BB60BB68184600F00FFD604A7B6852F8E0
:1005AC002330013B032B00F2A58001A252F823F06B
:1005BC00CD0500082906000871060008B9060008D8
:1005CC00786800F013FF7B68002B17D1534A7B68C7
:1005DC00022142F823107A68514B1B68642101FBFD
:1005EC0003F31946104600F08DFE4B4B1B68002B95
:1005FC0000F08280022000F047FF7DE0474A7B68D4
:10060C00032142F823107A68464B1B68642101FBD6
:10061C0003F31946104600F075FE6DE0786800F0A3
:10062C0075FF7B68184600F0D1FE0346012B0ED1F6
:10063C003A4A7B68032142F823107A68394B1B68CD
:10064C00642101FB03F31946104600F05BFE7B6846
:10065C00002B53D1304B1B68002B4FD0022000F0E5
:10066C0013FF4BE0786800F00FFF7B68184600F032
:10067C00ADFE0346012B0ED1284A7B68042142F8BB
:10068C0023107A68284B1B68642101FB03F319467D
:10069C00104600F037FE7B68002B31D11E4B1B68D7
:1006AC00002B2DD0022000F031FF29E0786800F0FB
:1006BC006FFF7B68184600F089FE0346012B0ED1B4
:1006CC00164A7B68022142F823107A68144B1B6887
:1006DC00642101FB03F31946104600F013FE7B68FE
:1006EC00002B0FD10C4B1B68002B0BD0022000F001
:1006FC000DFF07E000BF06E000BF04E000BF02E012
:10070C0000BF00E000BF00BF1037BD4680BD00BF7A
:10071C00E00000201F85EB51D000002018000020C5
:10072C00240000202C0000202800002080B582B07E
:10073C0000AF7860002000F059FE012000F056FE5A
:10074C00054A7B6813601921022000F0DBFD00BF15
:10075C000837BD4680BD00BF2000002080B582B0A8
:10076C0000AF78603960786800F040FF386800F0BE
:10077C003DFF00BF0837BD4680BD000080B500AF0F
:10078C00A04B1B680B3B032B00F2E48101A252F837
:10079C0023F000BFB1070008BD0800086909000874
:1007AC00410A00080020FFF7BFFE0120FFF7BCFE46
:1007BC000020FFF775FD0346012B0DD1924B1B68F2
:1007CC00924A13600C20FFF7B1FF2021904801F0F2
:1007DC0084FA904B00221A600120FFF761FD03465A
:1007EC00012B4FD1002000F001FE012000F0FEFD96
:1007FC00894B1B68032B03D0874B1B68042B1ED122
:10080C00854B02221A60804B1B68642202FB03F3A7
:10081C001946002000F076FD7F4B03225A607F4B77
:10082C001B68642202FB03F31946012000F06AFDE9
:10083C00784B1B68002B02D0022000F025FE764B73
:10084C001B68022B1ED1744B03221A60734B1B685E
:10085C00642202FB03F31946002000F053FD6E4B9B
:10086C0002225A60684B1B68642202FB03F3194690
:10087C00012000F047FD674B1B68002B02D00220C3
:10088C0000F044FE0320FFF70BFD0346012B0BD1B8
:10089C00604B01221A60624B1B68642202FB03F35B
:1008AC001946032000F02EFD032000F08FFD5AE1C5
:1008BC00564B1B6819460220FFF750FF0020FFF72C
:1008CC00EFFC0346012B06D1564B1B684F4A1360B5
:1008DC000D20FFF72BFF0120FFF7E2FC0346012B55
:1008EC0012D14A4B1B680133484A1360474B1A68B4
:1008FC004D4B83FB02135911D317CB1A642101FB07
:10090C0003F3D31A414A13600220FFF7C9FC0346D4
:10091C00012B03D13D4B1B683B4A1360022000F0B6
:10092C0055FD0346012B40F019814FF480613F487F
:10093C0001F0D3F900224FF400613C4801F0B5F905
:10094C0001213B4801F0C9F900221021304801F087
:10095C00ACF90A21022000F0D5FCFFE02B4B1B6800
:10096C0019460320FFF7FAFE0020FFF799FC034617
:10097C00012B06D1294B1B68244A13600E20FFF76C
:10098C00D5FE0120FFF78CFC0346012B12D11F4B27
:10099C001B6801331D4A13601C4B1A68224B83FBE6
:1009AC0002135911D317CB1A642101FB03F3D31A89
:1009BC00164A13600220FFF773FC0346012B03D188
:1009CC00124B1B68174A1360022000F0FFFC034611
:1009DC00012B40F0C5804FF48061144801F07DF983
:1009EC004FF40061114801F078F90121104801F031
:1009FC0074F91021064801F070F90A21022000F068
:100A0C0081FCADE02000002024000020CC00002060
:100A1C0000080140D0000020180000202C0000200D
:100A2C003C000020280000201F85EB5100100140E5
:100A3C00000C01404E4B1B6819460420FFF78EFE3C
:100A4C000020FFF72DFC0346012B41D1494B01221D
:100A5C001A60484B01225A60474B1A68474B1B6877
:100A6C001A44474B1B689A420BD1454B1B68002B11
:100A7C0007D0414B1B68002B03D0404B1B68002B4D
:100A8C000CD1404B1B683E4A13603F4B1B683A4AE3
:100A9C0013603E4B1B68394A13600BE0384B1B68E4
:100AAC00384A1360344B1B68374A1360334B1B684E
:100ABC00364A1360324B1A682F4B1B681A442F4B63
:100ACC001B6813445B00324A13600B20FFF72EFEA9
:100ADC000120FFF7E5FB0346012B12D1244B1B68C9
:100AEC000133234A1360224B1A682A4B83FB0213EF
:100AFC005911D317CB1A642101FB03F3D31A1C4AE7
:100B0C0013600220FFF7CCFB0346012B03D1184BDB
:100B1C001B681A4A1360022000F058FC0346012B94
:100B2C0020D100224FF480611B4801F0BEF84FF435
:100B3C000061194801F0D1F800220121174801F099
:100B4C00B4F81021164801F0C8F80A21022000F070
:100B5C00D9FB07E0134B0B221A6004E000BF02E044
:100B6C0000BF00E000BF00F020FA00BF80BD00BF56
:100B7C00CC00002018000020280000202C000020B1
:100B8C002400002030000020340000203800002019
:100B9C003C0000201F85EB5100100140000C01406F
:100BAC00000801402000002080B500AF00F072FD6D
:100BBC0000F0A0FBFFF76CFB00F016F800F046F914
:100BCC0000F054F800F0A0F800F016F9044801F019
:100BDC00FBFC0021034801F0A1FDFFF7CFFDFCE772
:100BEC00400200209C01002080B590B000AF07F1BE
:100BFC00180328220021184602F0F6FD3B1D0022A6
:100C0C001A605A609A60DA601A610223BB61012390
:100C1C00BB621023FB6202237B630023BB634FF494
:100C2C006013FB6307F11803184601F06FF80346D5
:100C3C00002B01D000F0B4F90F237B600223BB60C2
:100C4C000023FB604FF480633B6100237B613B1D01
:100C5C000221184601F0DAFA0346002B01D000F00D
:100C6C009FF900BF4037BD4680BD000080B586B0FF
:100C7C0000AF07F1080300221A605A609A60DA602C
:100C8C003B4600221A605A601E4B4FF080421A609D
:100C9C001C4B40F27F225A601A4B00229A60194B6F
:100CAC0040F2E732DA60174B00221A61154B002232
:100CBC009A61144801F038FC0346002B01D000F077
:100CCC006FF94FF48053BB6007F1080319460D48C8
:100CDC0001F090FF0346002B01D000F061F90023D6
:100CEC003B6000237B603B461946064802F012FB32
:100CFC000346002B01D000F053F900BF1837BD4656
:100D0C0080BD00BF4002002080B58EB000AF07F15F
:100D1C00280300221A605A609A60DA6007F12003F7
:100D2C0000221A605A603B1D00221A605A609A60B9
:100D3C00DA601A615A619A612D4B2E4A1A602C4B5B
:100D4C0040F27F225A602A4B00229A60284B40F2D4
:100D5C00E732DA60264B00221A61254B00229A6199
:100D6C00234801F0E1FB0346002B01D000F018F9F9
:100D7C004FF48053BB6207F1280319461C4801F05D
:100D8C0039FF0346002B01D000F00AF9184801F096
:100D9C006DFC0346002B01D000F002F900233B62EE
:100DAC0000237B6207F120031946114802F0B2FAC6
:100DBC000346002B01D000F0F3F860237B60002386
:100DCC00BB600023FB6000237B613B1D00221946A6
:100DDC00074801F04DFE0346002B01D000F0E0F86F
:100DEC00034800F063F900BF3837BD4680BD00BF33
:100DFC009C0100200004004080B500AF114B124A4A
:100E0C001A60104B4FF4E1325A600E4B00229A607C
:100E1C000C4B0022DA600B4B00221A61094B0C229E
:100E2C005A61084B00229A61064B0022DA61054890
:100E3C0002F0E0FA0346002B01D000F0B1F800BF3D
:100E4C0080BD00BFE40100200038014080B588B0AF
:100E5C0000AF07F1100300221A605A609A60DA6042
:100E6C00454B9B69444A43F010039361424B9B6989
:100E7C0003F01003FB60FB683F4B9B693E4A43F059
:100E8C00200393613C4B9B6903F02003BB60BB6860
:100E9C00394B9B69384A43F004039361364B9B6989
:100EAC0003F004037B607B68334B9B69324A43F04D
:100EBC0008039361304B9B6903F008033B603B686C
:100ECC00002230212D4800F0F0FE002240F20131CA
:100EDC002B4800F0EAFE00224FF44061294800F054
:100EEC00E4FE4FF400533B6100237B610023BB61A4
:100EFC0007F110031946234800F03CFD40F206238D
:100F0C003B6100237B610023BB6107F11003194691
:100F1C001A4800F02FFD30233B6101237B61002335
:100F2C00BB610223FB6107F110031946134800F063
:100F3C0021FD40F201333B6101237B610023BB6146
:100F4C000223FB6107F1100319460D4800F012FD56
:100F5C004FF440633B6101237B610023BB6102239F
:100F6C00FB6107F110031946064800F003FD00BFB2
:100F7C002037BD4680BD00BF001002400008014074
:100F8C00000C01400010014080B582B000AF7860C9
:100F9C0000F014FAFFF7C0FA00BF0837BD4680BD59
:100FAC0080B400AF72B600BFFEE780B400AF00BFE4
:100FBC00BD4680BC7047000080B483B000AF786041
:100FCC00044B1B687A685A6300BF0C37BD4680BC63
:100FDC00704700BF9C01002080B485B000AF154B5A
:100FEC009B69144A43F001039361124B9B6903F014
:100FFC000103BB60BB680F4BDB690E4A43F08053A7
:10100C00D3610C4BDB6903F080537B607B680A4B2C
:10101C005B68FB60FB6823F0E063FB60FB6843F0FC
:10102C000073FB60044AFB68536000BF1437BD4675
:10103C0080BC7047001002400000014080B584B0B5
:10104C0000AF78607B681B68B3F1804F14D1154BEF
:10105C00DB69144A43F00103D361124BDB6903F0E3
:10106C000103FB60FB68002200211C2000F04BFCFC
:10107C001C2000F064FC10E07B681B680A4A934259
:10108C000BD1084BDB69074A43F00203D361054BD4
:10109C00DB6903F00203BB60BB6800BF1037BD46C1
:1010AC0080BD00BF001002400004004080B588B035
:1010BC0000AF786007F1100300221A605A609A6042
:1010CC00DA607B681B680F4A934217D10E4B9B6901
:1010DC000D4A43F0040393610B4B9B6903F004032B
:1010EC00FB60FB6840233B6102237B610223FB61B5
:1010FC0007F110031946054800F03CFC00BF2037EF
:10110C00BD4680BD000400400010024000080140B4
:10111C0080B58AB000AF786007F1140300221A6022
:10112C005A609A60DA607B681B68224A93423DD110
:10113C00214B9B69204A43F4804393611E4B9B696E
:10114C0003F480433B613B691B4B9B691A4A43F098
:10115C0008039361184B9B6903F00803FB60FB6861
:10116C0040237B610223BB6103233B6207F1140321
:10117C001946124800F0FEFB80237B610023BB6103
:10118C000023FB6107F1140319460C4800F0F2FB35
:10119C000B4B5B687B627B6A43F0E0637B627B6A30
:1011AC0043F004037B62064A7B6A536000BF283716
:1011BC00BD4680BD0038014000100240000C0140CB
:1011CC000000014080B400AFFEE780B400AFFEE742
:1011DC0080B400AFFEE780B400AFFEE780B400AF90
:1011EC00FEE780B400AF00BFBD4680BC704780B442
:1011FC0000AF00BFBD4680BC704780B400AF00BFDD
:10120C00BD4680BC704780B500AF00F089FA00BFC6
:10121C0080BD000080B500AF024801F021FB00BF8B
:10122C0080BD00BF4002002080B586B000AF786062
:10123C00144A154BD31A7B617B693B61134B1B68BA
:10124C00002B02D1114B124A1A60104B1A687B68A2
:10125C0013443A699A4207D202F09CFA03460C22D4
:10126C001A604FF0FF3309E0084B1B68FB60074B1B
:10127C001A687B681344054A1360FB6818461837D4
:10128C00BD4680BD0050002000040000D4000020AA
:10129C00A002002080B400AF00BFBD4680BC7047E8
:1012AC0080B582B000AF78607B68002B0BD1104A00
:1012BC007B68002142F833100D4A7B68DB00134435
:1012CC0001225A600FE00A4A7B68002142F8331071
:1012DC00074A7B68DB00134401225A607B68013BA0
:1012EC001846FFF7DDFF00BF0837BD4680BD00BFC5
:1012FC00E000002080B500AF0420FFF7D1FF00BF55
:10130C0080BD000080B483B000AF786039607B682A
:10131C00042B0BD808497B683A6841F83320064AFD
:10132C007B68DB00134400225A6000E000BF0C37DE
:10133C00BD4680BC704700BFE000002080B582B085
:10134C0000AF78607B68002B16D11B4A7B6852F883
:10135C003330002B06D1184A7B68DB001344012282
:10136C005A6024E0144A7B6852F833305A1E1249F2
:10137C007B6841F833201AE00F4A7B6852F833300F
:10138C00002B06D10C4A7B68DB00134401225A6007
:10139C0008E0094A7B6852F833305A1E06497B68CC
:1013AC0041F833207B68013B1846FFF7C7FF00BFAD
:1013BC000837BD4680BD00BFE000002080B500AFFF
:1013CC000420FFF7BBFF00BF80BD000080B483B0DA
:1013DC0000AF7860044A7B68DB0013445B681846F6
:1013EC000C37BD4680BC7047E000002080B582B051
:1013FC0000AF78607B68022B2DD07B68022B37DC2A
:10140C007B68002B03D07B68012B19D030E00022C5
:10141C004FF48061194800F048FC00224FF4006141
:10142C00164800F042FC00224FF40071144800F002
:10143C003CFC00224FF48071114800F036FC18E09F
:10144C00002201210E4800F030FC002210210D4832
:10145C0000F02BFC0DE000224FF48071084800F0E6
:10146C0024FC00224FF48071054800F01EFC00E0C3
:10147C0000BF00BF0837BD4680BD00BF0010014053
:10148C00000C01400008014080B582B000AF7860CC
:10149C007B68022B21D07B68022B2BDC7B68002B1A
:1014AC0003D07B68012B0DD024E000224FF4806127
:1014BC00134800F0FAFB01224FF40061104800F0D1
:1014CC00F4FB18E0002201210E4800F0EEFB012293
:1014DC0010210D4800F0E9FB0DE000224FF40071E3
:1014EC00084800F0E2FB01224FF48071054800F03F
:1014FC00DCFB00E000BF00BF0837BD4680BD00BF6D
:10150C0000100140000C01400008014080B582B081
:10151C0000AF78607B68022B21D07B68022B2BDC20
:10152C007B68002B03D07B68012B0DD024E00122BB
:10153C004FF48061134800F0B8FB00224FF40061B7
:10154C00104800F0B2FB18E0012201210E4800F017
:10155C00ACFB002210210D4800F0A7FB0DE001228E
:10156C004FF40071084800F0A0FB00224FF480718A
:10157C00054800F09AFB00E000BF00BF0837BD46ED
:10158C0080BD00BF00100140000C0140000801406C
:10159C0080B582B000AF78607B68002B03D07B688D
:1015AC00012B0DD017E001224FF480610C4800F0A4
:1015BC007CFB01224FF40061094800F076FB0AE045
:1015CC0001220121074800F070FB0122102106487E
:1015DC0000F06BFB00BF00BF0837BD4680BD00BFED
:1015EC0000100140000C01400008014080B582B0A1
:1015FC0000AF78607B68092B0DDC7A680E490F48C8
:10160C0002F0FAF803469AB24FF47A730B490C487D
:10161C0001F040FF0CE07A680A49084802F0ECF847
:10162C0003469AB24FF47A730449054801F032FF2D
:10163C0000BF0837BD4680BD904000082C0200203A
:10164C00E40100209C400008FFF724FE0B480C49E5
:10165C000C4A002302E0D458C4500433C4188C4202
:10166C00F9D3094A094C002301E013600432A24269
:10167C00FBD302F095F8FFF797FA704700000020B3
:10168C00B000002010410008B00000209C02002097
:10169C00FEE7000080B500AF084B1B68074A43F01B
:1016AC0010031360032000F023F90F2000F008F85A
:1016BC00FFF792FC0023184680BD00BF00200240BB
:1016CC0080B582B000AF7860124B1A68124B1B7851
:1016DC0019464FF47A73B3FBF1F3B2FBF3F31846EC
:1016EC0000F03BF90346002B01D001230EE07B6890
:1016FC000F2B0AD8002279684FF0FF3000F003F965
:10170C00064A7B681360002300E001231846083763
:10171C00BD4680BD40000020480000204400002051
:10172C0080B400AF054B1B781A46054B1B6813445D
:10173C00034A136000BFBD4680BC704748000020C0
:10174C008802002080B400AF024B1B681846BD46CF
:10175C0080BC70478802002080B485B000AF7860F0
:10176C007B6803F00703FB600C4BDB68BB60BA685B
:10177C004FF6FF031340BB60FB681A02BB681343B0
:10178C0043F0BF6343F40033BB60044ABB68D360CF
:10179C0000BF1437BD4680BC704700BF00ED00E0B1
:1017AC0080B400AF044BDB681B0A03F00703184638
:1017BC00BD4680BC704700BF00ED00E080B483B034
:1017CC0000AF0346FB7197F90730002B0BDBFB795D
:1017DC0003F01F02064997F907305B09012000FA54
:1017EC0002F241F8232000BF0C37BD4680BC704785
:1017FC0000E100E080B483B000AF03463960FB71B8
:10180C0097F90730002B0ADB3B68DAB20C4997F9E1
:10181C0007301201D2B20B4483F800230AE03B6874
:10182C00DAB20849FB7903F00F03043B1201D2B280
:10183C000B441A7600BF0C37BD4680BC704700BF06
:10184C0000E100E000ED00E080B489B000AFF8608A
:10185C00B9607A60FB6803F00703FB61FB69C3F1B5
:10186C000703042B28BF0423BB61FB690433062B3D
:10187C0002D9FB69033B00E000237B614FF0FF3290
:10188C00BB6902FA03F3DA43BB681A407B699A40DE
:10189C004FF0FF317B6901FA03F3D9437B680B40AE
:1018AC00134318462437BD4680BC704780B582B0C0
:1018BC0000AF78607B68013BB3F1807F01D30123DB
:1018CC000FE00A4A7B68013B53600F214FF0FF3059
:1018DC00FFF790FF054B00229A60044B07221A6019
:1018EC00002318460837BD4680BD00BF10E000E05D
:1018FC0080B582B000AF78607868FFF72DFF00BF2D
:10190C000837BD4680BD80B586B000AF0346B960D0
:10191C007A60FB7300237B61FFF742FF78617A6882
:10192C00B9687869FFF790FF024697F90F301146B6
:10193C001846FFF75FFF00BF1837BD4680BD80B566
:10194C0082B000AF0346FB7197F907301846FFF7DA
:10195C0035FF00BF0837BD4680BD80B582B000AFF3
:10196C0078607868FFF7A2FF034618460837BD4633
:10197C0080BD000080B48BB000AF7860396000236C
:10198C007B6200233B6269E101227B6A02FA03F36A
:10199C00FB613B681B68FA691340BB61BA69FB6960
:1019AC009A4240F058813B685B689A4A93425ED0F9
:1019BC00984A934275D8984A934258D0964A934283
:1019CC006FD8964A934252D0944A934269D8944A1B
:1019DC0093424CD0924A934263D8924A934246D057
:1019EC00904A93425DD8122B2AD8122B59D801A2B7
:1019FC0052F823F07B1A0008551A0008671A0008E1
:101A0C00A91A0008AF1A0008AF1A0008AF1A00088C
:101A1C00AF1A0008AF1A0008AF1A0008AF1A000876
:101A2C00AF1A0008AF1A0008AF1A0008AF1A000866
:101A3C00AF1A0008AF1A00085D1A0008711A0008E6
:101A4C00794A934213D02CE03B68DB683B6229E077
:101A5C003B68DB6804333B6224E03B68DB6808339B
:101A6C003B621FE03B68DB680C333B621AE03B686F
:101A7C009B68002B02D104233B6213E03B689B68FC
:101A8C00012B05D108233B627B68FA691A6109E0D6
:101A9C0008233B627B68FA695A6103E000233B62CE
:101AAC0000E000BFBB69FF2B01D87B6801E07B68BD
:101ABC0004337B61BB69FF2B02D87B6A9B0002E07D
:101ACC007B6A083B9B003B617B691A680F213B6971
:101ADC0001FA03F3DB431A40396A3B6901FA03F359
:101AEC001A437B691A603B685B6803F08053002BD8
:101AFC0000F0B1804D4B9B694C4A43F0010393615C
:101B0C004A4B9B6903F00103BB60BB68484A7B6A84
:101B1C009B08023352F82330FB607B6A03F003030B
:101B2C009B000F2202FA03F3DB43FA681340FB60BD
:101B3C007B68404A934213D07B683F4A93420DD056
:101B4C007B683E4A934207D07B683D4A934201D161
:101B5C00032306E0042304E0022302E0012300E057
:101B6C0000237A6A02F0030292009340FA6813434E
:101B7C00FB602F497B6A9B080233FA6841F82320EB
:101B8C003B685B6803F48013002B06D02D4B9A68DE
:101B9C002C49BB6913438B6006E02A4B9A68BB69DE
:101BAC00DB43284913408B603B685B6803F40013EC
:101BBC00002B06D0234BDA682249BB691343CB6058
:101BCC0006E0204BDA68BB69DB431E491340CB604F
:101BDC003B685B6803F40033002B06D0194B5A6842
:101BEC001849BB6913434B6006E0164B5A68BB6936
:101BFC00DB43144913404B603B685B6803F4803350
:101C0C00002B21D00F4B1A680E49BB6913430B6094
:101C1C0021E000BF00003210000031100000221043
:101C2C0000002110000012100000111000100240E2
:101C3C000000014000080140000C01400010014070
:101C4C0000140140000401400B4B1A68BB69DB43D4
:101C5C00094913400B607B6A01337B623B681A684D
:101C6C007B6A22FA03F3002B7FF48EAE00BF00BF19
:101C7C002C37BD4680BC70470004014080B485B051
:101C8C0000AF78600B467B807B689A687B8813403A
:101C9C00002B02D00123FB7301E00023FB73FB7BC1
:101CAC0018461437BD4680BC704780B483B000AF73
:101CBC0078600B467B8013467B707B78002B03D0BF
:101CCC007A887B681A6103E07B881A047B681A6146
:101CDC0000BF0C37BD4680BC704780B485B000AFE8
:101CEC0078600B467B807B68DB68FB607A88FB68DE
:101CFC0013401A04FB68D9437B880B401A437B685A
:101D0C001A6100BF1437BD4680BC704780B586B0E1
:101D1C0000AF78607B68002B01D101236CE27B68FB
:101D2C001B6803F00103002B00F08780924B5B686B
:101D3C0003F00C03042B0CD08F4B5B6803F00C03EB
:101D4C00082B12D18C4B5B6803F48033B3F5803FC6
:101D5C000BD1894B1B6803F40033002B6CD07B68D0
:101D6C005B68002B68D1012346E27B685B68B3F5A6
:101D7C00803F06D1804B1B687F4A43F4803313604D
:101D8C002EE07B685B68002B0CD17B4B1B687A4A7E
:101D9C0023F480331360784B1B68774A23F4802339
:101DAC0013601DE07B685B68B3F5A02F0CD1724B00
:101DBC001B68714A43F4802313606F4B1B686E4A97
:101DCC0043F4803313600BE06B4B1B686A4A23F4BB
:101DDC0080331360684B1B68674A23F480231360BD
:101DEC007B685B68002B13D0FFF7ACFC386108E014
:101DFC00FFF7A8FC02463B69D31A642B01D90323D5
:101E0C00FAE15D4B1B6803F40033002BF0D014E0B7
:101E1C00FFF798FC386108E0FFF794FC02463B6939
:101E2C00D31A642B01D90323E6E1534B1B6803F44B
:101E3C000033002BF0D100E000BF7B681B6803F07F
:101E4C000203002B63D04C4B5B6803F00C03002B9C
:101E5C000BD0494B5B6803F00C03082B1CD1464B91
:101E6C005B6803F48033002B16D1434B1B6803F0E3
:101E7C000203002B05D07B681B69012B01D00123C9
:101E8C00BAE13D4B1B6823F0F8027B685B69DB0011
:101E9C00394913430B603AE07B681B69002B20D057
:101EAC00364B01221A60FFF74DFC386108E0FFF752
:101EBC0049FC02463B69D31A022B01D903239BE14F
:101ECC002D4B1B6803F00203002BF0D02A4B1B6830
:101EDC0023F0F8027B685B69DB00274913430B6036
:101EEC0015E0264B00221A60FFF72CFC386108E045
:101EFC00FFF728FC02463B69D31A022B01D90323B6
:101F0C007AE11D4B1B6803F00203002BF0D17B68B8
:101F1C001B6803F00803002B3AD07B689B69002BED
:101F2C0019D0174B01221A60FFF70CFC386108E03E
:101F3C00FFF708FC02463B69D31A022B01D9032395
:101F4C005AE10D4B5B6A03F00203002BF0D0012029
:101F5C0000F0CCFA1CE00A4B00221A60FFF7F2FBEF
:101F6C0038610FE0FFF7EEFB02463B69D31A022BF8
:101F7C0008D9032340E100BF001002400000424298
:101F8C00800442429E4B5B6A03F00203002BE9D1B2
:101F9C007B681B6803F00403002B00F0A680002371
:101FAC00FB75974BDB6903F08053002B0DD1944BE1
:101FBC00DB69934A43F08053D361914BDB6903F0A7
:101FCC008053BB60BB680123FB758E4B1B6803F40D
:101FDC008073002B18D18B4B1B688A4A43F4807397
:101FEC001360FFF7AFFB386108E0FFF7ABFB02466D
:101FFC003B69D31A642B01D90323FDE0814B1B6889
:10200C0003F48073002BF0D07B68DB68012B06D1C6
:10201C007B4B1B6A7A4A43F0010313622DE07B6809
:10202C00DB68002B0CD1764B1B6A754A23F001033D
:10203C001362734B1B6A724A23F0040313621CE095
:10204C007B68DB68052B0CD16D4B1B6A6C4A43F02B
:10205C00040313626A4B1B6A694A43F0010313625F
:10206C000BE0674B1B6A664A23F001031362644B57
:10207C001B6A634A23F0040313627B68DB68002B42
:10208C0015D0FFF75FFB38610AE0FFF75BFB0246F8
:10209C003B69D31A41F28832934201D90323ABE056
:1020AC00574B1B6A03F00203002BEED014E0FFF732
:1020BC0049FB38610AE0FFF745FB02463B69D31A3E
:1020CC0041F28832934201D9032395E04C4B1B6AB1
:1020DC0003F00203002BEED1FB7D012B05D1484B05
:1020EC00DB69474A23F08053D3617B68DB69002BA3
:1020FC0000F08180424B5B6803F00C03082B61D02D
:10210C007B68DB69022B46D13F4B00221A60FFF73C
:10211C0019FB386108E0FFF715FB02463B69D31A3F
:10212C00022B01D9032367E0354B1B6803F00073C6
:10213C00002BF0D17B681B6AB3F5803F08D1304B84
:10214C005B6823F400327B689B682D4913434B601A
:10215C002B4B5B6823F474127B68196A7B685B6A8F
:10216C000B43274913434B60274B01221A60FFF79F
:10217C00E9FA386108E0FFF7E5FA02463B69D31A41
:10218C00022B01D9032337E01D4B1B6803F00073AE
:10219C00002BF0D02FE01C4B00221A60FFF7D2FA74
:1021AC00386108E0FFF7CEFA02463B69D31A022BDE
:1021BC0001D9032320E0124B1B6803F00073002BA2
:1021CC00F0D118E07B68DB69012B01D1012313E00E
:1021DC000B4B5B68FB60FB6803F480327B681B6A0B
:1021EC009A4206D1FB6803F470127B685B6A9A42D0
:1021FC0001D0012300E0002318461837BD4680BDEE
:10220C0000100240007000406000424280B584B073
:10221C0000AF786039607B68002B01D10123D0E0DE
:10222C006A4B1B6803F007033A689A4210D9674B54
:10223C001B6823F0070265493B6813430B60634B33
:10224C001B6803F007033A689A4201D00123B8E0F7
:10225C007B681B6803F00203002B20D07B681B6893
:10226C0003F00403002B05D0594B5B68584A43F428
:10227C00E06353607B681B6803F00803002B05D0F8
:10228C00534B5B68524A43F460535360504B5B684A
:10229C0023F0F0027B689B684D4913434B607B68CD
:1022AC001B6803F00103002B40D07B685B68012B9B
:1022BC0007D1474B1B6803F40033002B15D10123C6
:1022CC007FE07B685B68022B07D1414B1B6803F0F6
:1022DC000073002B09D1012373E03D4B1B6803F005
:1022EC000203002B01D101236BE0394B5B6823F017
:1022FC0003027B685B68364913434B60FFF722FA95
:10230C00F8600AE0FFF71EFA0246FB68D31A41F2A6
:10231C008832934201D9032353E02D4B5B6803F0C1
:10232C000C027B685B689B009A42EBD1274B1B68C5
:10233C0003F007033A689A4210D2244B1B6823F02F
:10234C00070222493B6813430B60204B1B6803F0C8
:10235C0007033A689A4201D0012332E07B681B687C
:10236C0003F00403002B08D0194B5B6823F4E062E4
:10237C007B68DB68164913434B607B681B6803F072
:10238C000803002B09D0124B5B6823F460527B6866
:10239C001B69DB000E4913434B6000F021F8024629
:1023AC000B4B5B681B0903F00F030A49CB5C22FA49
:1023BC0003F3094A1360094B1B681846FFF780F9B1
:1023CC00002318461037BD4680BD00BF00200240D8
:1023DC0000100240A84000084000002044000020EB
:1023EC0080B487B000AF0023FB600023BB600023E8
:1023FC007B6100237B6000233B611E4B5B68FB60B1
:10240C00FB6803F00C03042B02D0082B03D027E04D
:10241C00194B3B6127E0FB689B0C03F00F03174A39
:10242C00D35C7B60FB6803F48033002B10D0114B22
:10243C005B685B0C03F00103114AD35CBB607B68E7
:10244C000D4A02FB03F2BB68B2FBF3F37B6104E0C1
:10245C007B680C4A02FB03F37B617B693B6102E006
:10246C00054B3B6100BF3B6918461C37BD4680BC21
:10247C00704700BF0010024000127A00C0400008F4
:10248C00D040000800093D0080B400AF024B1B682F
:10249C001846BD4680BC70474000002080B500AF98
:1024AC00FFF7F2FF0246054B5B681B0A03F00703BC
:1024BC000349CB5C22FA03F3184680BD001002409E
:1024CC00B840000880B500AFFFF7DEFF0246054BB1
:1024DC005B68DB0A03F007030349CB5C22FA03F3C6
:1024EC00184680BD00100240B840000880B485B08A
:1024FC0000AF78600A4B1B680A4AA2FB03235B0AF5
:10250C007A6802FB03F3FB6000BFFB685A1EFA609B
:10251C00002BF9D100BF00BF1437BD4680BC7047FB
:10252C0040000020D34D621080B582B000AF7860BF
:10253C007B68002B01D1012341E07B6893F83D308F
:10254C00DBB2002B06D17B68002283F83C20786834
:10255C00FEF774FD7B68022283F83D207B681A68C5
:10256C007B6804331946104600F030FC7B6801226E
:10257C0083F846207B68012283F83E207B68012289
:10258C0083F83F207B68012283F840207B6801227E
:10259C0083F841207B68012283F842207B6801226A
:1025AC0083F843207B68012283F844207B68012256
:1025BC0083F845207B68012283F83D2000231846D0
:1025CC000837BD4680BD000080B485B000AF786090
:1025DC007B6893F83D30DBB2012B01D001233AE04C
:1025EC007B68022283F83D207B681B68DA687B6875
:1025FC001B6842F00102DA607B681B68184A934240
:10260C000ED07B681B68B3F1804F09D07B681B68C8
:10261C00144A934204D07B681B68134A934211D12D
:10262C007B681B689B6803F00703FB60FB68062B49
:10263C0010D07B681B681A687B681B6842F001022B
:10264C001A6007E07B681B681A687B681B6842F09D
:10265C0001021A60002318461437BD4680BC70472F
:10266C00002C0140000400400008004080B582B0FE
:10267C0000AF78607B68002B01D1012341E07B68BF
:10268C0093F83D30DBB2002B06D17B68002283F837
:10269C003C20786800F039F87B68022283F83D20F2
:1026AC007B681A687B6804331946104600F08EFB71
:1026BC007B68012283F846207B68012283F83E2048
:1026CC007B68012283F83F207B68012283F840203D
:1026DC007B68012283F841207B68012283F8422029
:1026EC007B68012283F843207B68012283F8442015
:1026FC007B68012283F845207B68012283F83D200A
:10270C00002318460837BD4680BD80B483B000AFA7
:10271C00786000BF0C37BD4680BC704780B584B074
:10272C0000AF786039603B68002B09D17B6893F867
:10273C003E30DBB2012B14BF01230023DBB222E0BD
:10274C003B68042B09D17B6893F83F30DBB2012B3B
:10275C0014BF01230023DBB215E03B68082B09D121
:10276C007B6893F84030DBB2012B14BF01230023AC
:10277C00DBB208E07B6893F84130DBB2012B14BF6D
:10278C0001230023DBB2002B01D001235EE03B6868
:10279C00002B04D17B68022283F83E2013E03B68B7
:1027AC00042B04D17B68022283F83F200BE03B68AA
:1027BC00082B04D17B68022283F8402003E07B685D
:1027CC00022283F841207B681B6801223968184675
:1027DC0000F07CFD7B681B681E4A934207D17B6826
:1027EC001B685A6C7B681B6842F400425A647B6815
:1027FC001B68184A93420ED07B681B68B3F1804F5C
:10280C0009D07B681B68144A934204D07B681B6810
:10281C00124A934211D17B681B689B6803F0070333
:10282C00FB60FB68062B10D07B681B681A687B6802
:10283C001B6842F001021A6007E07B681B681A688B
:10284C007B681B6842F001021A600023184610379F
:10285C00BD4680BD002C0140000400400008004033
:10286C0080B582B000AF78607B681B681B6903F091
:10287C000203022B22D17B681B68DB6803F0020386
:10288C00022B1BD17B681B686FF002021A617B68FC
:10289C0001221A777B681B689B6903F00303002BEA
:1028AC0003D0786800F076FA05E0786800F069FAF1
:1028BC00786800F078FA7B6800221A777B681B68CE
:1028CC001B6903F00403042B22D17B681B68DB68B3
:1028DC0003F00403042B1BD17B681B686FF004020C
:1028EC001A617B6802221A777B681B689B6903F468
:1028FC004073002B03D0786800F04CFA05E0786840
:10290C0000F03FFA786800F04EFA7B6800221A77E4
:10291C007B681B681B6903F00803082B22D17B68BA
:10292C001B68DB6803F00803082B1BD17B681B6852
:10293C006FF008021A617B6804221A777B681B68A7
:10294C00DB6903F00303002B03D0786800F022FA54
:10295C0005E0786800F015FA786800F024FA7B68D6
:10296C0000221A777B681B681B6903F01003102B7D
:10297C0022D17B681B68DB6803F01003102B1BD182
:10298C007B681B686FF010021A617B6808221A774B
:10299C007B681B68DB6903F44073002B03D07868F9
:1029AC0000F0F8F905E0786800F0EBF9786800F0D1
:1029BC00FAF97B6800221A777B681B681B6903F0A5
:1029CC000103012B0ED17B681B68DB6803F001034C
:1029DC00012B07D17B681B686FF001021A617868C4
:1029EC00FEF7D2FA7B681B681B6903F08003802B0F
:1029FC000ED17B681B68DB6803F08003802B07D14A
:102A0C007B681B686FF080021A61786800F0E9FC43
:102A1C007B681B681B6903F04003402B0ED17B685D
:102A2C001B68DB6803F04003402B07D17B681B68F5
:102A3C006FF040021A61786800F0BEF97B681B6881
:102A4C001B6903F02003202B0ED17B681B68DB680D
:102A5C0003F02003202B07D17B681B686FF020024A
:102A6C001A61786800F0B4FC00BF0837BD4680BD21
:102A7C0080B586B000AFF860B9607A600023FB7552
:102A8C00FB6893F83C30012B01D10223AEE0FB68CC
:102A9C00012283F83C207B680C2B00F29F8001A262
:102AAC0052F823F0E52A0008E92B0008E92B00086E
:102ABC00E92B0008252B0008E92B0008E92B00085E
:102ACC00E92B0008672B0008E92B0008E92B00080C
:102ADC00E92B0008A72B0008FB681B68B96818468F
:102AEC0000F0D6F9FB681B689A69FB681B6842F01A
:102AFC0008029A61FB681B689A69FB681B6822F0E4
:102B0C0004029A61FB681B689969BB681A69FB68C7
:102B1C001B680A439A6164E0FB681B68B968184635
:102B2C0000F01CFAFB681B689A69FB681B6842F48E
:102B3C0000629A61FB681B689A69FB681B6822F447
:102B4C0080629A61FB681B689969BB681B691A02F1
:102B5C00FB681B680A439A6143E0FB681B68B96811
:102B6C00184600F065FAFB681B68DA69FB681B689D
:102B7C0042F00802DA61FB681B68DA69FB681B68C3
:102B8C0022F00402DA61FB681B68D969BB681A6918
:102B9C00FB681B680A43DA6123E0FB681B68B968B1
:102BAC00184600F0AFFAFB681B68DA69FB681B6813
:102BBC0042F40062DA61FB681B68DA69FB681B6827
:102BCC0022F48062DA61FB681B68D969BB681B69F7
:102BDC001A02FB681B680A43DA6102E00123FB75E9
:102BEC0000BFFB68002283F83C20FB7D1846183799
:102BFC00BD4680BD80B584B000AF786039600023DD
:102C0C00FB737B6893F83C30012B01D10223B4E0B9
:102C1C007B68012283F83C207B68022283F83D20EC
:102C2C007B681B689B68BB60BB6823F07703BB6049
:102C3C00BB6823F47F43BB607B681B68BA689A60EF
:102C4C003B681B68B3F5005F3ED0B3F5005F00F244
:102C5C008780B3F5805F00F08680B3F5805F7FD806
:102C6C00702B1AD0702B7BD8602B50D0602B77D860
:102C7C00502B3CD0502B73D8402B58D0402B6FD8B6
:102C8C00302B64D0302B6BD8202B60D0202B67D806
:102C9C00002B5CD0102B5AD062E07B6818683B6824
:102CAC0099683B685A683B68DB6800F0F0FA7B680F
:102CBC001B689B68BB60BB6843F07703BB607B6899
:102CCC001B68BA689A604FE07B6818683B68996823
:102CDC003B685A683B68DB6800F0D9FA7B681B6874
:102CEC009A687B681B6842F480429A603CE07B687F
:102CFC0018683B6859683B68DB681A4600F050FA64
:102D0C007B681B685021184600F0A7FA2CE07B6802
:102D1C0018683B6859683B68DB681A4600F06EFA25
:102D2C007B681B686021184600F097FA1CE07B68F2
:102D3C0018683B6859683B68DB681A4600F030FA43
:102D4C007B681B684021184600F087FA0CE07B6812
:102D5C001A683B681B681946104600F07EFA03E0BF
:102D6C000123FB7300E000BF7B68012283F83D2048
:102D7C007B68002283F83C20FB7B18461037BD464D
:102D8C0080BD80B483B000AF786000BF0C37BD4607
:102D9C0080BC704780B483B000AF786000BF0C3744
:102DAC00BD4680BC704780B483B000AF786000BF74
:102DBC000C37BD4680BC704780B483B000AF7860E0
:102DCC0000BF0C37BD4680BC7047000080B485B096
:102DDC0000AF786039607B681B68FB607B68294AB0
:102DEC0093420BD07B68B3F1804F07D07B68264AA7
:102DFC00934203D07B68254A934208D1FB6823F0A9
:102E0C007003FB603B685B68FA681343FB607B688C
:102E1C001C4A93420BD07B68B3F1804F07D07B6880
:102E2C00194A934203D07B68184A934208D1FB6835
:102E3C0023F44073FB603B68DB68FA681343FB6068
:102E4C00FB6823F080023B685B691343FB607B6883
:102E5C00FA681A603B689A687B68DA623B681A68A1
:102E6C007B689A627B68074A934203D13B681A6974
:102E7C007B681A637B6801225A6100BF1437BD4618
:102E8C0080BC7047002C014000040040000800404A
:102E9C0080B487B000AF786039607B681B6A7B6157
:102EAC007B681B6A23F001027B681A627B685B6893
:102EBC003B617B689B69FB60FB6823F07003FB60E4
:102ECC00FB6823F00303FB603B681B68FA68134341
:102EDC00FB607B6923F002037B613B689B687A692A
:102EEC0013437B617B681C4A93420CD17B6923F0B2
:102EFC0008037B613B68DB687A6913437B617B6900
:102F0C0023F004037B617B68134A934211D13B6924
:102F1C0023F480733B613B6923F400733B613B6892
:102F2C005B693A6913433B613B689B693A6913439C
:102F3C003B617B683A695A607B68FA689A613B68C6
:102F4C005A687B685A637B687A691A6200BF1C37BF
:102F5C00BD4680BC704700BF002C014080B487B0D8
:102F6C0000AF786039607B681B6A7B617B681B6A89
:102F7C0023F010027B681A627B685B683B617B689C
:102F8C009B69FB60FB6823F4E043FB60FB6823F464
:102F9C004073FB603B681B681B02FA681343FB60C1
:102FAC007B6923F020037B613B689B681B017A697A
:102FBC0013437B617B681D4A93420DD17B6923F0DF
:102FCC0080037B613B68DB681B017A6913437B617F
:102FDC007B6923F040037B617B68144A934213D1D5
:102FEC003B6923F480633B613B6923F400633B61E1
:102FFC003B685B699B003A6913433B613B689B6987
:10300C009B003A6913433B617B683A695A607B6861
:10301C00FA689A613B685A687B689A637B687A693C
:10302C001A6200BF1C37BD4680BC7047002C0140A3
:10303C0080B487B000AF786039607B681B6A7B61B5
:10304C007B681B6A23F480727B681A627B685B68FE
:10305C003B617B68DB69FB60FB6823F07003FB6002
:10306C00FB6823F00303FB603B681B68FA6813439F
:10307C00FB607B6923F400737B613B689B681B02DC
:10308C007A6913437B617B681D4A93420DD17B693E
:10309C0023F400637B613B68DB681B027A69134392
:1030AC007B617B6923F480637B617B68144A934268
:1030BC0013D13B6923F480533B613B6923F40053E8
:1030CC003B613B685B691B013A6913433B613B689D
:1030DC009B691B013A6913433B617B683A695A60EF
:1030EC007B68FA68DA613B685A687B68DA637B68EC
:1030FC007A691A6200BF1C37BD4680BC704700BF9E
:10310C00002C014080B487B000AF786039607B68D8
:10311C001B6A3B617B681B6A23F480527B681A62D2
:10312C007B685B687B617B68DB69FB60FB6823F415
:10313C00E043FB60FB6823F44073FB603B681B6857
:10314C001B02FA681343FB603B6923F400533B6199
:10315C003B689B681B033A6913433B617B680F4ACE
:10316C00934209D17B6923F480437B613B685B69A3
:10317C009B017A6913437B617B687A695A607B682F
:10318C00FA68DA613B685A687B681A647B683A694A
:10319C001A6200BF1C37BD4680BC7047002C014032
:1031AC0080B487B000AFF860B9607A60FB681B6AC6
:1031BC007B61FB681B6A23F00102FB681A62FB68E7
:1031CC009B693B613B6923F0F0033B617B681B010E
:1031DC003A6913433B617B6923F00A037B617A698B
:1031EC00BB6813437B61FB683A699A61FB687A6937
:1031FC001A6200BF1C37BD4680BC704780B487B0D4
:10320C0000AFF860B9607A60FB681B6A7B61FB6891
:10321C001B6A23F01002FB681A62FB689B693B6116
:10322C003B6923F470433B617B681B033A6913438E
:10323C003B617B6923F0A0037B61BB681B017A694E
:10324C0013437B61FB683A699A61FB687A691A627D
:10325C0000BF1C37BD4680BC704780B485B000AF42
:10326C00786039607B689B68FB60FB6823F07003B7
:10327C00FB603A68FB68134343F00703FB607B6811
:10328C00FA689A6000BF1437BD4680BC704780B4A2
:10329C0087B000AFF860B9607A603B60FB689B68F0
:1032AC007B617B6923F47F437B613B681A027B68FB
:1032BC001A43BB6813437A6913437B61FB687A69D1
:1032CC009A6000BF1C37BD4680BC704780B487B085
:1032DC0000AFF860B9607A60BB6803F01F0301228D
:1032EC0002FA03F37B61FB681A6A7B69DB431A40C1
:1032FC00FB681A62FB681A6ABB6803F01F037968E3
:10330C0001FA03F31A43FB681A6200BF1C37BD466F
:10331C0080BC704780B485B000AF786039607B6842
:10332C0093F83C30012B01D1022346E07B6801224B
:10333C0083F83C207B68022283F83D207B681B6865
:10334C005B68FB607B681B689B68BB60FB6823F059
:10335C007003FB603B681B68FA681343FB607B6877
:10336C001B68FA685A607B681B68164A93420ED039
:10337C007B681B68B3F1804F09D07B681B68124ACD
:10338C00934204D07B681B68104A93420CD1BB68F3
:10339C0023F08003BB603B685B68BA681343BB6077
:1033AC007B681B68BA689A607B68012283F83D20B1
:1033BC007B68002283F83C20002318461437BD4656
:1033CC0080BC7047002C0140000400400008004005
:1033DC0080B483B000AF786000BF0C37BD4680BCB2
:1033EC00704780B483B000AF786000BF0C37BD4627
:1033FC0080BC704780B582B000AF78607B68002BD2
:10340C0001D1012342E07B6893F84130DBB2002B01
:10341C0006D17B68002283F840207868FDF778FE9F
:10342C007B68242283F841207B681B68DA687B6800
:10343C001B6822F40052DA60786800F01DF97B6892
:10344C001B681A697B681B6822F490421A617B68BE
:10345C001B685A697B681B6822F02A025A617B68D8
:10346C001B68DA687B681B6842F40052DA607B6880
:10347C0000225A647B68202283F841207B6820223A
:10348C0083F842207B6800225A63002318460837D1
:10349C00BD4680BD80B58AB002AFF860B9603B60B4
:1034AC001346FB8000237B61FB6893F84130DBB251
:1034BC00202B6DD1BB68002B02D0FB88002B01D1D7
:1034CC00012366E0FB6800225A64FB68212283F822
:1034DC004120FEF737F97861FB68FA889A84FB681B
:1034EC00FA88DA84FB689B68B3F5805F08D1FB68C7
:1034FC001B69002B04D10023FB61BB68BB6103E09B
:10350C00BB68FB610023BB612AE03B6800937B69CD
:10351C0000228021F86800F040F80346002B01D00F
:10352C00032336E0FB69002B0BD1BB691B881A46C1
:10353C00FB681B68C2F308025A60BB690233BB61AB
:10354C0007E0FB691A78FB681B685A60FB6901335A
:10355C00FB61FB68DB8C9BB2013B9AB2FB68DA84A3
:10356C00FB68DB8C9BB2002BCFD13B6800937B6953
:10357C0000224021F86800F010F80346002B01D01F
:10358C00032306E0FB68202283F84120002300E09F
:10359C00022318462037BD4680BD80B590B000AFE1
:1035AC00F860B9603B601346FB7150E0BB6CB3F143
:1035BC00FF3F4CD0BB6C002B07D0FEF7C3F8024684
:1035CC003B68D31ABA6C9A4241D2FB681B680C3325
:1035DC00BB62BB6A53E8003F7B627B6A23F4D07307
:1035EC00FB63FB681B680C33FA6B7A633B63396BC8
:1035FC007A6B41E80023FB62FB6A002BE5D1FB6888
:10360C001B6814337B617B6953E8003F3B613B696A
:10361C0023F00103BB63FB681B681433BA6B3A627B
:10362C00FB61F9693A6A41E80023BB61BB69002B75
:10363C00E5D1FB68202283F84120FB68202283F827
:10364C004220FB68002283F8402003230FE0FB6834
:10365C001B681A68BB681340BA689A420CBF0123F6
:10366C000023DBB21A46FB799A429FD000231846FE
:10367C004037BD4680BD000080B584B000AF786097
:10368C007B681B681B6923F440517B68DA687B6894
:10369C001B680A431A617B689A687B681B691A432A
:1036AC007B685B691343BB607B681B68DB6823F436
:1036BC00B05323F00C037A681268B9680B43D360DB
:1036CC007B681B685B6923F440717B689A697B6833
:1036DC001B680A435A617B681B682C4A934203D1CE
:1036EC00FEF7F0FEF86002E0FEF7D8FEF860FA682C
:1036FC0013469B0013449A001A447B685B689B003A
:10370C00B2FBF3F3224AA2FB03235B091901FA680B
:10371C0013469B0013449A001A447B685B689B0019
:10372C00B2FBF3F21A4BA3FB02035B09642000FB10
:10373C0003F3D31A1B013233154AA2FB03235B0993
:10374C0003F0F0031944FA6813469B0013449A00E3
:10375C001A447B685B689B00B2FBF3F20C4BA3FB37
:10376C0002035B09642000FB03F3D31A1B01323301
:10377C00074AA2FB03235B0903F00F027B681B685B
:10378C000A449A6000BF1037BD4680BD0038014026
:10379C001F85EB51014B1868704700BF4C0000208F
:1037AC0070B500260C4D0D4C641BA410A64209D11B
:1037BC0000F05CFC00260A4D0A4C641BA410A642C7
:1037CC0005D170BD55F8043B98470136EEE755F826
:1037DC00043B98470136F2E708410008084100080D
:1037EC00084100080C41000803460244934200D1F2
:1037FC00704703F8011BF9E70EB46FF0004100B5F8
:10380C009CB01DAB029006900791049108480949A1
:10381C0053F8042B0591006802A9019300F068F895
:10382C000022029B1A701CB05DF804EB03B07047C9
:10383C004C0000200802FFFF2DE9F0478E688246FD
:10384C009E420C4690461F4638D88A8912F4906FD7
:10385C0032D0256809690133A5EB010965694B4430
:10386C0005EB450505EBD5756D109D4238BF1D4622
:10387C00530531D5294600F053FB064650B90C23AD
:10388C004FF0FF30CAF80030A38943F04003A38106
:10389C00BDE8F0874A46216900F0CEFAA38923F4EB
:1038AC00906343F08003A38126614E4426603E461C
:1038BC006561A5EB0905A560BE4200D93E463246BE
:1038CC004146206800F0C6FAA36822689B1B32446C
:1038DC000020A3602260DBE72A4600F07BFB064653
:1038EC000028E1D15046216900F0CEFAC7E700006C
:1038FC002DE9F04F98468B8907461B060D4614465A
:10390C009DB00ED50B6963B9402100F009FB28600E
:10391C00286120B90C233B604FF0FF30D1E04023ED
:10392C006B610023099320238DF8293030234FF04D
:10393C000109CDF80C80DFF8A4818DF82A302346DC
:10394C009A4613F8012B0AB1252AF9D1BAEB040BCC
:10395C000BD05B46224629463846FFF76DFF0130F7
:10396C0000F0AA80099A5A4409929AF80030002B68
:10397C0000F0A28000234FF0FF32CDE905230AF1BD
:10398C00010A049307938DF853301A935446052279
:10399C0014F8011B514800F041FA049AD8B9D0062A
:1039AC0044BF20238DF85330110744BF2B238DF8CF
:1039BC0053309AF800302A2B15D0544600204FF083
:1039CC000A0C079A214611F8013B303B092B4ED9C2
:1039DC00B0B1079214E0A0EB080309FA03F3134308
:1039EC00A2460493D2E7039B191D1B680391002B7D
:1039FC00BBBF5B4242F0020207930793B8BF04922D
:103A0C0023782E2B0CD163782A2B35D1039B0234CF
:103A1C001A1D1B680392002BB8BF4FF0FF330593A0
:103A2C00DFF8C8A003225046217800F0F7F940B126
:103A3C004023A0EB0A0003FA00F0049B013403437B
:103A4C00049314F8011B062225488DF8281000F069
:103A5C00E5F9002838D0234B1BBB039B073323F01D
:103A6C00070308330393099B3344099367E70C4618
:103A7C0001200CFB0232A5E700234FF00A0C19467B
:103A8C0001340593204610F8012B303A092A03D94A
:103A9C00002BC5D00591C3E7044601230CFB012183
:103AAC00F0E703AB00932A4638460F4B04A9AFF35B
:103ABC000080421C0646D6D1AB895B063FF52CAF85
:103ACC0009981DB0BDE8F08F03AB00932A46384629
:103ADC00054B04A900F07CF8EBE700BFD2400008CE
:103AEC00DC4000080000000045380008D840000801
:103AFC002DE9F047164699468A680B6907469342AA
:103B0C00B8BF1346336091F843200C46DDF8208093
:103B1C000AB1013333602368990642BF336802331C
:103B2C003360256815F0060506D104F1190AE3681F
:103B3C0032689B1AAB4228DC94F84320131E22688F
:103B4C0018BF012392062DD44946384604F143028E
:103B5C00C047013020D02368E56803F00603042B2E
:103B6C0018BF002532684FF00006A36808BFAD1AD5
:103B7C00226908BF25EAE5759342C4BF9B1AED186C
:103B8C001A34B5421AD1002008E0012352464946A6
:103B9C003846C047013003D14FF0FF30BDE8F08705
:103BAC000135C4E73020E11881F843005A1C94F821
:103BBC0045102244023382F84310C5E70123224604
:103BCC0049463846C0470130E6D00136D9E70000F7
:103BDC002DE9FF470C46277E9146782F80469A4662
:103BEC000C9904F1430207D8622F0AD8002F00F079
:103BFC00D980582F00F0A48004F1420684F842705A
:103C0C003AE0A7F16303152BF6D801A050F823F086
:103C1C00753C0008893C0008053C0008053C000880
:103C2C00053C0008053C0008893C0008053C0008E0
:103C3C00053C0008053C0008053C0008973D0008C1
:103C4C00B93C0008793D0008053C0008053C00081B
:103C5C00B93D0008053C0008B93C0008053C0008CB
:103C6C00053C0008813D00080B6804F142061A1D52
:103C7C001B680A6084F842300123A4E025680868B8
:103C8C002E0600F104030AD505680B60002D03DA3B
:103C9C002D236D4284F843300A235E4819E015F059
:103CAC00400F05680B6018BF2DB2EFE70B68256855
:103CBC00181D0860280601D51D6802E06906FBD5B1
:103CCC001D886F2F0CBF08230A235248002184F84B
:103CDC0043106668002EA8BF2168A660A4BF21F01F
:103CEC00040121600DB9002E4DD01646B5FBF3F141
:103CFC0003FB1157C75D06F8017D2F46BB420D46ED
:103D0C00F4D9082B0BD12368DF0708D52369616828
:103D1C009942DEBF302306F8013C06F1FF36921BB8
:103D2C0022614B4621464046CDF800A003AAFFF77E
:103D3C00DFFE01304CD14FF0FF3004B0BDE8F0870E
:103D4C00344884F845700E68236856F8045B1F06E7
:103D5C000E6014D5D90744BF43F0200323601DB96E
:103D6C00236823F0200323601023AFE7236843F07C
:103D7C00200323607823284884F84530E3E75E0667
:103D8C0048BFADB2E6E71646BBE70B6826681D1DBB
:103D9C0060690D6035061B6801D5186002E071067C
:103DAC00FBD51880002316462361BAE70B681A1D51
:103DBC000A601E6800213046626800F02FF808B1D6
:103DCC00801B606063682361002384F84330A8E79C
:103DDC003246494640462369D0470130ABD0236870
:103DEC009B0713D4E068039B9842B8BF1846A4E71E
:103DFC000123324649464046D04701309BD001351D
:103E0C00E36803995B1AAB42F2DCEBE7002504F1A3
:103E1C001906F5E7E3400008F4400008034610B526
:103E2C00C9B202449342184601D1002003E0047841
:103E3C0001338C42F6D110BD0A44914200F1FF339C
:103E4C0000D1704710B511F8014B914203F8014FA6
:103E5C00F9D110BD884210B501EB020402D984429D
:103E6C00234607D8431EA14208D011F8012B03F8B2
:103E7C00012FF8E7014602448A4200D110BD13F825
:103E8C00014D02F8014DF7E738B50546002943D03E
:103E9C0051F8043C0C1F002BB8BFE41800F0D0F80C
:103EAC001E4A1368104633B9636014602846BDE897
:103EBC00384000F0CBB8A3420AD92168621893426B
:103ECC0001BF1A685B685218226063600460EDE7FA
:103EDC001A465B680BB1A342FAD911685018A0427C
:103EEC000BD120680144501883421160DED1186850
:103EFC005B68014411605360D8E702D90C232B6036
:103F0C00D4E7206821188B4201BF19685B68091837
:103F1C00216063605460C9E738BD00BFD800002041
:103F2C00F8B5CD1C25F0030508350C2D38BF0C2534
:103F3C00002D064601DBA94203D90C233360002077
:103F4C00F8BD00F07DF821490A6814469CB9204F51
:103F5C003B6823B92146304600F062F838602946A8
:103F6C00304600F05DF8431C23D10C2330463360FF
:103F7C0000F06CF8E3E723685B1B17D40B2B03D919
:103F8C0023601C44256004E06368A2420CBF0B60F4
:103F9C005360304600F05AF804F10B00231D20F05A
:103FAC000700C21ACCD01B1AA350C9E7224664687A
:103FBC00CCE7C41C24F00304A042E3D0211A304601
:103FCC0000F02EF80130DDD1CFE700BFD800002083
:103FDC00DC000020F8B5074614460E4621B9114600
:103FEC00BDE8F840FFF79CBF22B9FFF74DFF25460F
:103FFC002846F8BD00F030F8A0420FD221463846D2
:10400C00FFF78EFF05460028F2D031462246FFF717
:10401C0013FF31463846FFF737FFE9E73546E7E748
:10402C0038B50023054D044608462B60FDF7FCF817
:10403C00431C02D12B6803B1236038BD8C020020D5
:10404C00014800F011B800BF94020020014800F0B4
:10405C000CB800BF9402002051F8043C181F002B30
:10406C00BCBF0B58C018704770477047F8B500BFFD
:10407C00F8BC08BC9E467047F8B500BFF8BC08BC3D
:04408C009E46704795
:1040900021375345473A30256423000021375345E3
:1040A000473A2564230000000000000000000000E3
:1040B00001020304060708090000000001020304CE
:1040C00002030405060708090A0B0C0D0E0F101059
:1040D0000102232D302B2000686C4C00656667457B
:1040E0004647003031323334353637383941424370
:1040F0004445460030313233343536373839616221
:08410000636465660000000025
:044108003101000879
:04410C000D01000899
:104110000008014000080140000801400010014073
:104120000002020004000020010000000100000065
:104130000B00000007000000020000000500000066
:10414000070000000200000005000000140000004D
:104150000024F400100000000100000050000020C6
:10416000000000000000000000000000000000004F
:10417000000000000000000000000000000000003F
:10418000000000000000000000000000000000002F
:10419000000000000000000000000000000000001F
:1041A000000000000000000000000000000000000F
:1041B00000000000000000000000000000000000FF
:040000050800165584
:00000001FF
